:020000040800F2
:10000000B80B00204501000879120008091000080B
:10001000751200083F0B0008932100080000000043
:10002000000000000000000000000000051A0008A9
:10003000F90D000800000000A1170008F11A0008DF
:100040005F0100085F0100085F0100085F01000810
:100050005F0100085F0100085F0100085F01000800
:100060005F0100085F0100085F0100085F010008F0
:100070005F0100085F0100085F0100085F010008E0
:100080005F0100085F0100085F0100085F010008D0
:100090005F0100085F0100085F0100085F010008C0
:1000A0005F0100085F0100085F0100085F010008B0
:1000B0005F010008891B00085F0100085F0100085C
:1000C0005F0100085F0100085F0100085F01000890
:1000D0005F0100085F010008011F0008111F0008F0
:1000E0005F0100085F0100085F0100085F01000870
:1000F0005F0100085F0100085F0100085F01000860
:100100005F0100085F0100085F0100085F0100084F
:100110005F0100085F010008911B00085F010008F3
:100120005F0100085F0100085F0100085F0100082F
:10013000DFF80CD000F078FB0048004715460008B7
:10014000B80B00200648804706480047FEE7FEE758
:10015000FEE7FEE7FEE7FEE7FEE7FEE7FEE7FEE777
:10016000291B00083101000840EA01039B0703D066
:1001700009E008C9121F08C0042AFAD203E011F8E6
:10018000013B00F8013B521EF9D27047D2B201E0A8
:1001900000F8012B491EFBD270470022F6E710B58C
:1001A00013460A4604461946FFF7F0FF204610BDE5
:1001B00080EA010210B502F00043400022D04A005C
:1001C0001FD0010E01EB1261C0F35600C2F35602BC
:1001D00040F4000042F40002A0FB022000047F393A
:1001E000140400D0401C50EA124001D44000491EC3
:1001F000C2B20C0604EBD010401C4008802A02D08A
:1002000003E0002010BD20F00100002900DA0020EA
:10021000184310BD2DE9FE4F81EA030404F00044A9
:1002200021F0004100944FF0000B23F0004350EA0E
:1002300001045ED052EA03045BD0C3F30A54C1F355
:100240000A552C44A4F2F3340194A0FB0254C1F3E8
:10025000130141F48011C3F3130343F4801301FB32
:10026000024400FB034E840A970A44EA815447EA99
:100270008357A4FB076802958D0A05FB07854FEAA3
:10028000932C04FB0C542705029D4FEA065847EABD
:100290001637B5EB08056EEB070C870E920E47EA92
:1002A000811742EA8312A7FB0201B6EB0B0164EB54
:1002B00000042B0D43EA0C335E1844EB1C50DA4665
:1002C0005146E7FB0201C5F313044FEA0B3343EA3F
:1002D00014534FEA0432019C43EA0603A4F10C04D0
:1002E0000294009CCDE900B400F079F903B0BDE8B8
:1002F000F08F00200146F9E72DE9F04D81EA030473
:1003000004F0004B21F0004514464FF0000A23F0A2
:10031000004150EA050220D054EA01021DD0C5F385
:100320000A570246C5F31303C1F31300C1F30A567B
:1003300040F4801543F48013A7EB0608101BD64643
:1003400008F2FD3873EB050002D308F1010801E063
:1003500092185B41B8F1000F03DA00200146BDE8B6
:10036000F08D00204FF48011064684460EE0171BE6
:1003700073EB050705D3121B63EB050306434CEA39
:10038000010C49084FEA300092185B4150EA01071E
:10039000EDD152EA030012D082EA040083EA05019B
:1003A000084305D0101BAB4106D20122002306E012
:1003B00000224FF0004302E06FF0010253101AEBED
:1003C00006004CEB085110EB0A0041EB0B01BDE8B5
:1003D000F04D00F0F5B80EB5C10F80EAE0700844AA
:1003E000CA07002140F233438DE80E000A460B464F
:1003F00000F0F5F803B000BD00F0004220F000402E
:10040000C10DC0F3160040F400007F2901DA00207E
:100410007047962903DCC1F19601C84001E0963986
:100420008840002AF4D04042704720F00040C10DBF
:10043000C0F3160040F400007F2901DA0020704765
:10044000962903DCC1F19601C8407047963988406F
:10045000704700F0004230F000400AD0C10D01F5B5
:100460006071C0F3160042EA0151C208400711430F
:10047000704700200146704701F0004330B421F07E
:10048000004150EA010206D00A0DA2F56072C1F3E4
:100490001301002A02DC30BC00207047440F44EAFC
:1004A000C104C100E01830BC00EBC25000F051B8EC
:1004B000002801DBC0F10040002901DBC1F100414F
:1004C0008142704730B50B460146002020220124AE
:1004D00009E021FA02F59D4205D303FA02F5491B12
:1004E00004FA02F52844151EA2F10102F1DC30BD28
:1004F0002DE9F05F0546002092469B468846064659
:10050000814640241BE0284641464746224600F0EB
:10051000ACF953465A46C01A914110D311461846B9
:10052000224600F093F92D1A67EB01084F46224648
:100530000120002100F08AF917EB00094E41201E2E
:10054000A4F10104DFDC484631462A464346BDE8B3
:10055000F09F0029A8BF7047401C490008BF20F049
:100560000100704710B4B0FA80FC00FA0CF050EAB9
:10057000010404BF10BC704749B1CCF1200421FA3A
:1005800004F411FA0CF118BF012121430843A3EB35
:100590000C01CB1D4FEA00614FEA102042BF002042
:1005A00010BC704700EBC35010440029A4BF10BC1E
:1005B0007047401C490008BF20F0010010BC704784
:1005C00010B5141E73F1000408DA401C41F100015B
:1005D00092185B411A4301D120F0010010BD2DE9B2
:1005E000F04D92469B4611B1B1FA81F202E0B0FAA9
:1005F00080F22032904600F029F904460F4640EA86
:100600000A0041EA0B0153465A46084313D01146EB
:1006100053EA010019D0C8F14002504600F025F914
:1006200005460E4650465946424600F00FF908432B
:1006300005D0012004E020463946BDE8F08D0020B9
:10064000054346EAE0762C4337430A986305E40AFB
:10065000A0EB08000022FD0A44EA47540A3002D504
:1006600000200146E9E7010510196941DDE9084567
:1006700000196941BDE8F04DA2E72DE9FE4F804623
:1006800081EA0300C00F0C46009021F0004123F0E6
:100690000045B8EB0200A94105D2404621469046EC
:1006A0001C460B46024623F00040104347D0270D5E
:1006B000C7F30A00C3F30A510290401A0190402880
:1006C0006BDAC3F3130040F4801B0098924620B10C
:1006D0000023D2EB030A63EB0B0B01985946C0F1E0
:1006E0004002504600F0B2F806460D4650465946C4
:1006F000019A00F0CAF810EB08006141002487EA73
:10070000115284EAE7731A4340D0009A62B3019A07
:10071000012A4FEA075215DC001B61EB02014FF082
:10072000004202EA0752CDE90042001C41F5801167
:1007300032462B46FFF753FF03B0BDE8F08F40462B
:100740002146F9E7001B61EB0201001C41F5801313
:1007500000185B412018A2F5001747EB030140EA9F
:10076000D570B6196D4111E06D084FEA360645EABD
:10077000C0754FEA0752001B61EB0201001C41F5F6
:10078000801149084FEA30000019514132462B468A
:1007900003B0BDE8F04FFFF713BF009801224000FF
:1007A0000023D0EB020263EBE073009821464FEA8E
:1007B000E074B8EB000061EB0401E9E783F000436B
:1007C0005BE781F0004158E7C1F30A52C1F313011E
:1007D00040F2FF3341F480119A4202DA00200146D0
:1007E000704740F233439A42A2F2334202DC524253
:1007F00000F03BB800F02AB830B5041E71F10004D7
:1008000004DB4FF00044404264EB0101141E73F11D
:10081000000405DB1C464FF00043524263EB040327
:10082000994208BF904230BD064C074D06E0E06893
:1008300040F0010394E8070098471034AC42F6D327
:10084000FFF77AFC6854000888540008202A04DB6B
:10085000203A00FA02F1002070479140C2F12003D3
:1008600020FA03F3194390407047202A04DB203A12
:1008700021FA02F00021704721FA02F3D040C2F1C0
:1008800020029140084319467047202A06DBCB1707
:10089000203A41FA02F043EAE07306E041FA02F33B
:1008A000D040C2F12002914008431946704770B50C
:1008B0008D1810F8014B14F0030201D110F8012B30
:1008C000231106D110F8013B03E010F8016B01F889
:1008D000016B521EF9D1ABB110F8012B04F00C04DE
:1008E0008A1A0C2C03D0A2EB84129B1C08E010F88F
:1008F000014BA2EB0422F8E712F8014B01F8014B7F
:100900005B1EF9D5A942D4D3002070BD00B587B0D5
:10091000012140F2112000F081FF00208DF81B0022
:100920000320ADF818008DF81A0006A9204800F041
:1009300064FA4FF4004000F035FF002001900120E0
:100940008DF808008DF809004FF460200390002016
:10095000049002208DF8140001A9164800F056F802
:10096000072301220A21134800F078F80723022206
:100970000B21104800F072F801210E4800F01CF81D
:100980000C4800F0C7F800BF0A4800F035F801280D
:10099000FAD0084800F0CEF800BF064800F022F870
:1009A0000128FAD00121034800F0B9F807B000BDD2
:1009B000001001400024014021B1826842F0010290
:1009C000826003E0826822F001028260704721B1F8
:1009D000826842F48072826003E0826822F480724E
:1009E00082607047014600208A6802F004020AB162
:1009F000012000E000207047014600208A6802F0D4
:100A000008020AB1012000E00020704730B502461C
:100A10000020002350680F4C20400D790C6844EAF8
:100A200005242043506090680B4C2040D1E90254CB
:100A30002C434D7944EA450420439060D06A20F469
:100A400070000C7C641EE4B2234340EA0350D06281
:100A500030BD0000FFFEF0FFFDF7F1FFF0B50446EA
:100A60000D4600200021092D11DDE068A5F10A06E0
:100A700006EB4607072606FA07F18843A5F10A06A2
:100A800006EB460603FA06F10843E0600CE0206935
:100A900005EB4507072606FA07F1884305EB4506EF
:100AA00003FA06F108432061072A0FDA606B561E2D
:100AB00006EB86071F2606FA07F18843561E06EB4B
:100AC000860605FA06F10843606322E00D2A0FDA74
:100AD000206BD61F06EB86071F2606FA07F1884310
:100AE000D61F06EB860605FA06F10843206310E0E0
:100AF000E06AA2F10D0606EB86071F2606FA07F14B
:100B00008843A2F10D0606EB860605FA06F10843B6
:100B1000E062F0BD816841F008018160704721B159
:100B2000826842F4A002826003E0826822F4A0029C
:100B300082607047816841F004018160704700BFA6
:100B4000FEE7000010B5002400F056F804E0601C39
:100B5000C4B2012001F0BAFF4FF480710F4800F0D9
:100B60001FFA08B1642CF2DB642C01DB002010BDFD
:100B7000002404E0601CC4B2012001F0A7FF4FF480
:100B80008071064800F00CFA08B9642CF2DB642C82
:100B900001DB0020EBE70120E9E70000000801404D
:100BA00008B50121042000F039FE10208DF8030063
:100BB0000001ADF8000003208DF8020069460D48E1
:100BC00000F01BF904208DF803000120ADF80000AF
:100BD00003208DF802006946064800F00EF9012155
:100BE000044800F0E8F94FF48071024800F0E3F99E
:100BF00008BD00000008014008B504208DF803007E
:100C00008001ADF8000003208DF80200694602481B
:100C100000F0F3F808BD00000008014008B51020FE
:100C20008DF803000001ADF8000003208DF80200EC
:100C30006946024800F0E1F808BD000000080140E4
:100C400010B5002404E0601CC4B2012001F03EFF96
:100C50004FF48071104800F0A3F908B1642CF2DB66
:100C6000002404E0601CC4B2012001F02FFF4FF407
:100C70008071094800F094F908B9642CF2DB28204F
:100C800001F024FF4FF48071034800F089F908B1A6
:100C9000012010BD0020FCE70008014070B50024D1
:100CA000002506E06006040EFFF7CAFF0443681C37
:100CB000C5B2082DF6DB204670BD7CB505460E4654
:100CC00000F028F8FFF73EFF01281FD1002405E0BF
:100CD000FFF7E4FF0DF80400601CC4B2052CF7DB3D
:100CE0009DF800009DF8011008449DF8021008448A
:100CF0009DF8031008449DF80410884208D19DF81F
:100D0000000030709DF80200287001E000207CBDDA
:100D10000120FCE710B5FFF781FF4FF48071074811
:100D200000F047F9142001F0B1FE4FF48071034840
:100D300000F041F91E2001F0C9FE10BD000801407D
:100D400021B1026842F00102026004E002684FF63D
:100D5000FE731A400260704710B50022026847F621
:100D6000F0739A430C6A8B6823430C6923434C69E4
:100D700023438C692343CC6923434C6A23438C6A05
:100D800023431A430260CB6843600B6883604B685F
:100D9000C36010BD00B58BB00121084600F00EFD08
:100DA0003C200390002002900A90104801904FF4DC
:100DB0008060079080200590202008900C480090CB
:100DC00080150690002004904FF440500990694629
:100DD0000848FFF7C1FF01210648FFF7B1FF0121D5
:100DE00003484C38FFF7F3FD0BB000BDAC05002005
:100DF0004C2401400800024070472DE9F0410246B2
:100E000000250026002000230024002791F803C0BD
:100E10000CF00F0591F803C00CF0100CBCF1000FA2
:100E200003D091F802C04CEA050591F800C0BCF16E
:100E3000000F31D0146800202BE04FF0010C0CFAA9
:100E400000F3B1F800C00CEA03069E4220D18300F3
:100E50004FF00F0C0CFA03F7BC4305FA03FC4CEA05
:100E6000040491F803C0BCF1280F06D14FF0010C27
:100E70000CFA00FCC2F814C00AE091F803C0BCF1FF
:100E8000480F05D14FF0010C0CFA00FCC2F810C05D
:100E9000401C0828D1D31460B1F800C0BCF1FF0F8A
:100EA00034DD546800202EE000F1080C4FF00108FA
:100EB00008FA0CF3B1F800C00CEA03069E4221D1F7
:100EC00083004FF00F0C0CFA03F7BC4305FA03FC48
:100ED0004CEA040491F803C0BCF1280F05D100F1DD
:100EE000080C08FA0CF8C2F8148091F803C0BCF1A1
:100EF000480F07D100F1080C4FF0010808FA0CF870
:100F0000C2F81080401C0828CED35460BDE8F081A0
:100F1000F0B50A46002300240021002500F0004619
:100F2000B6F1004F02D11D4EF16901E01B4E716810
:100F3000C0F3034583B200F44016B6F5401F08D154
:100F400021F07061154E766826F07066134F7E6052
:100F500012E000F48016B6F5801F06D1032606FACB
:100F600005F4A14341F0706106E0460D360103FA35
:100F700006F6B14341F0706122B1460D360103FA25
:100F800006F6314300F00046B6F1004F02D1034EA1
:100F9000F16101E0014E7160F0BD00000000014010
:100FA0000246002093680B400BB1012000E00020B6
:100FB000704741617047016170470000024600219F
:100FC000002300BF06E0074800EB810030F8120064
:100FD0000344491C1E29F6D31E20B3FBF0F080B257
:100FE00070470000AC05002010B500F019FE4FF46A
:100FF000165000F0EBFE18210248FFF7CEF803F080
:1010000093F910BD9405002000BFFEE708B501214B
:10101000082000F003FC14208DF80300C020ADF878
:10102000000003208DF8020069460448FFF7E5FE42
:10103000C0210248FFF7BFFF08BD0000000C0140BF
:1010400070B5054600F02AF80026002400BF18E01D
:1010500040211148FFF7ADFF052001F037FD402189
:101060000D48FFF7A8FF6006040E80210A48FFF72D
:1010700097FF08B144F00104052001F027FD701C22
:10108000C6B2082EE4DB15B100F076F801E000F0FE
:1010900029F8204670BD0000000C014008B504206E
:1010A0008DF803008020ADF8000003208DF80200C9
:1010B00069460248FFF7A1FE08BD0000000C014090
:1010C00008B514208DF803008020ADF8000003203F
:1010D0008DF8020069460248FFF78FFE08BD000048
:1010E000000C014010B540210B48FFF762FFFFF7ED
:1010F000E7FF80210848FFF75CFF052001F0E6FCD0
:1011000040210548FFF757FF052001F0DFFC402193
:101110000148FFF74EFF10BD000C014070B50446BA
:10112000FFF7CEFF002540211248FFF742FF00BF26
:101130001DE004F0800020B180210E48FFF73BFF46
:1011400003E080210B48FFF734FF6006040E052002
:1011500001F0BCFC40210748FFF72DFF052001F0FE
:10116000B5FC40210348FFF724FF681CC5B2082DD9
:10117000DFDB70BD000C014010B540210B48FFF7CC
:1011800018FFFFF79DFF80210848FFF714FF052097
:1011900001F09CFC40210548FFF70DFF052001F000
:1011A00095FC40210148FFF704FF10BD000C0140F1
:1011B00010B5FFF785FF80210A48FFF7FCFE4021AC
:1011C0000848FFF7F8FE052001F080FC8021054863
:1011D000FFF7EFFE052001F079FC40210148FFF701
:1011E000E8FE10BD000C014010B5FFF769FF40217B
:1011F0000A48FFF7DEFE80210848FFF7DAFE0520E7
:1012000001F064FC40210548FFF7D5FE802103482A
:10121000FFF7D1FE052001F059FC10BD000C014084
:1012200010B5FFF73BFF80211148FFF7C4FE0A20ED
:1012300001F04CFC40210E48FFF7BDFE0A2001F0F2
:1012400045FC002407E0601CC4B2FF2C03DDFFF75F
:10125000CBFF012010BD80210548FFF7A1FE00282B
:10126000F1D140210248FFF7A4FE0020F2E7000080
:10127000000C014000BFFEE77047000070B5002180
:1012800000230F22C47804B3154C246804F4E064EE
:10129000C4F5E064210AC1F10403CA40447804FAA9
:1012A00003F184781440214309010E4C0678A155BE
:1012B000047804F01F050124AC4005786D11AD00E1
:1012C00005F1E025C5F8004109E0047804F01F05A8
:1012D0000124AC40044D0678761145F8264070BDD7
:1012E0000CED00E000E400E080E100E008B525201E
:1012F0008DF8000001208DF8030000208DF801001A
:101300008DF802006846FFF7B9FF012240F225512F
:10131000014800F0A4FE08BD003801400249014325
:10132000024A1160704700000000FA050CED00E071
:1013300070B5002419E004F1B001C8B2002100F03A
:10134000A9F90021084600F0A5F90021102000F0BD
:10135000A1F9002505E00121002000F09BF9681C9F
:10136000C5B2802DF7DB601CC4B2082CE3DB70BD76
:1013700008B50121182000F051FA10208DF8030063
:101380000320ADF800008DF8020069464E48FFF7D3
:1013900034FD10208DF803003020ADF8000003204C
:1013A0008DF8020069464948FFF727FD01214648AC
:1013B000FFF701FE642001F069FB01214248FFF7BD
:1013C000F8FD642001F062FB01213F48FFF7F3FDC7
:1013D0000021AE2000F05EF90021084600F05AF925
:1013E0000021102000F056F90021402000F052F9B1
:1013F0000021812000F04EF90021CF2000F04AF9B1
:101400000021A12000F046F90021C82000F042F997
:101410000021A62000F03EF90021A82000F03AF9B2
:1014200000213F2000F036F90021D32000F032F9EE
:101430000021084600F02EF90021D52000F02AF9FD
:101440000021802000F026F90021D92000F022F9A7
:101450000021F12000F01EF90021DA2000F01AF935
:101460000021122000F016F90021DB2000F012F913
:101470000021402000F00EF90021202000F00AF9A0
:101480000021022000F006F900218D2000F002F971
:101490000021142000F0FEF80021A42000F0FAF84A
:1014A0000021A62000F0F6F80021AF2000F0F2F8AD
:1014B0000021AF2000F0EEF8FFF73AFF00210846C8
:1014C00000F006F808BD0000000C014000100140CB
:1014D00070B504460D4605F1B001C8B2002100F018
:1014E000D9F8102141EA1410002100F0D3F804F0DB
:1014F0000F0141F00100002100F0CCF870BD0000A8
:101500002DE9F04180460E461546002731464046FB
:10151000FFF7DEFF00240AE0124A02EB8511085DA6
:10152000012100F0B7F8781CC7B2601CC4B2102CBF
:10153000F2DB701CC1B24046FFF7CAFF00240CE08A
:101540006900491C074A02EB4111085D012100F0C6
:10155000A1F8781CC7B2601CC4B2102CF0DBBDE847
:10156000F0810000400000202DE9F04107460E46C2
:10157000904600250024A8F12000C5B27F2F02DD8F
:101580000027B01CC6B231463846FFF7A1FF002441
:1015900008E004EB05110F4A505C012100F07AF8D5
:1015A000601CC4B2082CF4DB701CC1B23846FFF7D3
:1015B0008FFF002409E004EB05110831054A505C57
:1015C000012100F067F8601CC4B2082CF3DBBDE811
:1015D000F0810000764E00082DE9FF5F0746914636
:1015E0001D460E9E4FF0000A002433E0281B401ECB
:1015F000C1B20A2003F018FAB9FBF0F00A21B0FBDF
:10160000F1F201FB1208BAF1000F13D1681EA042DB
:1016100010DDB8F1000F0BD1B34606EBDB714910BA
:1016200001FB0471C8B220220199FFF79DFF0FE072
:101630004FF0010AB34606EBDB71491001FB047160
:10164000C8B208F13001CAB20199FFF78DFF00BF9F
:10165000601CC4B2AC42C9DBBDE8FF9F2DE9F0417C
:1016600004460F46154600260EE0AA5D3946204680
:10167000FFF77AFF04F10800C4B2782C02DD0024E1
:10168000B81CC7B2701CC6B2A85D0028EDD1BDE879
:10169000F081000070B504460E4626B102211448C0
:1016A000FFF789FC03E002211148FFF782FC0025C7
:1016B00017E010210F48FFF77CFC04F0800020B1F8
:1016C00020210C48FFF777FC03E020210948FFF7B1
:1016D00070FC10210748FFF76EFC6006040E681CC2
:1016E000C5B2082DE5DB02210148FFF764FC70BD9F
:1016F000000C01400010014000B589B0012102201A
:1017000000F06CF80121112000F088F818208DF805
:1017100023004020ADF8200003208DF8220008A906
:101720001C48FFF76AFB01211B48FFF7F1FB4FF450
:101730003470ADF81400FF20ADF818000020ADF8AB
:101740001600ADF81A0005A9144800F0EDFA0121C1
:10175000124800F039FA7020ADF804000120ADF80D
:1017600006000220ADF80C000020ADF80A0001A927
:101770000A4800F083FA0821084800F0CBFA01215A
:10178000064800F015FA0121044800F023FA09B0D8
:1017900000BD000000100140000C1A0000040040D1
:1017A0007047000001460020034A506820F4404082
:1017B00008435060704700000010024029B1064AFB
:1017C00052690243044B5A6104E0034A526982435E
:1017D000014B5A61704700000010024029B1064ACF
:1017E000D2690243044BDA6104E0034AD2698243BE
:1017F000014BDA61704700000010024029B1064A2F
:1018000012690243044B1A6104E0034A12698243DD
:10181000014B1A61704700000010024029B1064ACE
:1018200092690243044B9A6104E0034A926982433D
:10183000014B9A61704700000010024029B1064A2E
:10184000D2680243044BDA6004E0034AD268824360
:10185000014BDA60704700000010024030B50021F3
:101860000022002400232D4D6D6805F00C0121B1EC
:10187000042905D0082923D105E0294D056022E07F
:10188000274D05601FE0254D6D6805F47012234D4E
:101890006D6805F48034022505EB92421CB9214D98
:1018A000554305600BE01D4D6D6805F400351DB115
:1018B0001C4D5543056002E0194D5543056002E09B
:1018C000174D056000BF00BF144D6D6805F0F001B5
:1018D0000909154D6B5C0568DD4045600F4D6D686D
:1018E00005F4E061090A104D6B5C4568DD408560D8
:1018F0000A4D6D6805F46051C90A0B4D6B5C456873
:10190000DD40C560054D6D6805F44041890B074D0C
:101910006B5CC568B5FBF3F5056130BD0010024096
:1019200000127A0000093D00200000203000002055
:1019300010B5FFF76BFBFFF73BFCB020FFF7EEFBAA
:10194000FFF76EFC2020FFF7E9FBFFF769FC03209F
:10195000FFF7E4FBFFF764FCFFF746FC4FF47A70F7
:1019600001F094F810BD70B504460D46002608211C
:10197000202000F02CF8FFF71BFCB120FFF7CEFB76
:10198000FFF74EFC0020FFF75BFB218841EA0020B7
:1019900020800020FFF754FB21880843208000208E
:1019A000FFF74EFB06460020FFF74AFB298841EA75
:1019B000002028800020FFF743FB29880843288067
:1019C0000120FFF73DFB0646FFF70EFC70BD70B52A
:1019D00005460C46FFF7ECFBB020FFF79FFBFFF737
:1019E0001FFC2846FFF79AFBFFF71AFC2046FFF77B
:1019F00095FBFFF715FCFFF7F7FB4FF47A7001F04A
:101A000045F870BD704710B500F002F810BD000039
:101A10000CB50020019000903348006840F48030FD
:101A20003149086000BF3048006800F40030009081
:101A30000198401C0190009818B90198B0F5A06F6A
:101A4000F1D12948006800F4003010B10120009065
:101A500001E0002000900098012843D1234800684D
:101A600040F01000214908600846006820F003009B
:101A700008600846006840F0020008601A484068A4
:101A8000194948600846406848600846406840F484
:101A9000806048600846406820F47C104860084632
:101AA000406840F4E81048600846006840F08070E4
:101AB000086000BF0C48006800F000700028F9D0F2
:101AC0000948406820F0030007494860084640681C
:101AD00040F00200486000BF0348406800F00C007E
:101AE0000828F9D10CBD000000100240002002407F
:101AF000704700004FF0E021096921F004014FF028
:101B0000E0221161C21700EB5272D210044B1A602E
:101B1000194609684FF47A725143024A11607047BE
:101B2000380000203400002010B51348006840F051
:101B300001001149086008464068104908400E49F4
:101B40004860084600680E4908400B49086008468E
:101B5000006820F4802008600846406820F4FE00F9
:101B600048604FF41F008860FFF74DFF4FF00060A2
:101B70000449086010BD0000001002400000FFF89A
:101B8000FFFFF6FE08ED00E000B502F097F900BD9A
:101B900010B50121054800F029F828B101210348BA
:101BA00000F015F802F08AF910BD000000100040A6
:101BB00021B1028842F08002028004E002884FF6E0
:101BC0007F731A4002807047CA4302827047CA433B
:101BD0000282704721B1028842F00102028004E0D3
:101BE00002884FF6FE731A400280704730B50246F5
:101BF000002000230024158A05EA0103958905EADF
:101C0000010413B10CB1012000E0002030BD1AB175
:101C100083890B43838102E083898B4383817047EF
:101C20001FB501211020FFF7D9FD41F61F40ADF887
:101C300004000920ADF8080001A90F4800F074F86D
:101C400001210D48FFF7C0FF01210B48FFF7C2FF3C
:101C500036208DF8000001208DF8030000208DF85B
:101C600001008DF802006846FFF708FB01221146CB
:101C70000148FFF7CCFF1FBD0010004070B50024E5
:101C800000220023058C4FF6FE7635400584028C39
:101C90008388048B4FF68F752C40B51E2C400D8821
:101CA0002C43751E2A400D892A434D882A43144D22
:101CB000A8420BD0134DA84208D0134DA84205D01E
:101CC000124DA84202D0124DA84213D14FF6F7751B
:101CD0002A404D892A434FF6FB752A408D882A43B6
:101CE0004FF6FF652B404FF6FF552B408D892B4358
:101CF000CD892B4383800483CD888586028470BD83
:101D0000002C0140003401400040014000440140EB
:101D1000004801400A460021018B4FF6F773194035
:101D20001143018370470000002202881D4B984236
:101D30000ED01D4B98420BD0B0F1804F08D01B4BFA
:101D4000984205D01A4B984202D01A4B984204D1BF
:101D50004FF68F731A404B881A43174B984207D09F
:101D6000164B984204D04FF6FF431A40CB881A43D3
:101D700002808B8883850B8803850A4B98420BD0A1
:101D8000094B984208D00E4B984205D00D4B984213
:101D900002D00D4B984201D10B7A03860123838236
:101DA00070470000002C0140003401400004004056
:101DB00000080040000C00400010004000140040EB
:101DC00000400140004401400048014010B586B089
:101DD000044601210820FFF721FD01218804FFF7B7
:101DE000FDFC234800F0B6F84FF48060ADF8100019
:101DF00003208DF8120018208DF8130004A91D4847
:101E0000FEF7FBFF4FF40060ADF8100004208DF8E2
:101E1000130004A91748FEF7F0FF00940020ADF866
:101E20000400ADF80600ADF80800ADF80C000C2079
:101E3000ADF80A0069460E4800F036F901210C4859
:101E400000F07CF8012240F22551094800F007F922
:101E500027208DF8140000208DF8150001208DF842
:101E600016008DF8170005A8FFF708FA06B010BD98
:101E700000480040000C014000B585B001218803F6
:101E8000FFF7CCFC01210846FFF7C8FC0121042024
:101E9000FFF7C4FC18208DF813004FF40070ADF864
:101EA000100003208DF8120004A91348FEF7A5FFC7
:101EB00004208DF813000002ADF8100004A90E48AC
:101EC000FEF79BFF4FF4E13000900020ADF80C00CE
:101ED0000C20ADF80A000020ADF80800ADF80600AF
:101EE000ADF804006946054800F0DEF8012103481A
:101EF00000F024F805B000BD0008014000380140A2
:101F000008B5002000900121684601F033FF08BDAC
:101F100008B50020009040F22551074800F075F800
:101F200040B1054800F02CF9C0B20090012168468C
:101F300001F020FF08BD00000048004021B1828967
:101F400042F40052828104E082894DF6FF731A4008
:101F50008281704710B504462048844209D101218E
:101F60008803FFF76BFC00214FF48040FFF766FC0D
:101F700032E01B48844209D101214804FFF73EFCAE
:101F800000214FF40030FFF739FC25E0154884426A
:101F900009D101218804FFF731FC00214FF4802092
:101FA000FFF72CFC18E01048844209D10121C80435
:101FB000FFF724FC00214FF40020FFF71FFC0BE08B
:101FC0000A48844208D101210805FFF717FC0021C7
:101FD0004FF48010FFF712FC10BD000000380140E4
:101FE0000044004000480040004C004000500040C9
:101FF00002460020B1F5007F00D100BF13880B40DE
:102000000BB1012000E00020704770B502460024AB
:1020100000230025002040F66A16B14200D100BF1F
:10202000C1F3421501F01F03012606FA03F3012D47
:1020300002D19689334006E0022D02D1168A334040
:1020400001E0968A33400C12012606FA04F4168841
:10205000344013B10CB1012000E0002070BDF0B598
:102060000346002400260025002040F66A17B942E6
:1020700000D100BF1846C1F3421401F01F0601272A
:1020800007FA06F5012C01D10C3004E0022C01D135
:10209000103000E014301AB107682F43076002E0E7
:1020A0000768AF430760F0BD2DE9F04786B00546ED
:1020B0000E460024A24600BFA1460027B08900B109
:1020C00000BF2F462C8A4CF6FF700440F088044372
:1020D0002C82AC894EF6F3100440B0883189084355
:1020E000718908430443AC81AC8A4FF6FF40044039
:1020F000B0890443AC8201A8FFF7B0FB1F488742B8
:1021000002D1DDF810A001E0DDF80CA0A88900F4F0
:10211000004040B10AEBCA0000EB0A1031684900E8
:10212000B0FBF1F807E00AEBCA0000EB0A103168D7
:102130008900B0FBF1F86420B8FBF0F0040120093D
:10214000642101FB1089A88900F4004040B13220CD
:1021500000EBC900B0FBF1F000F00700044308E019
:10216000322000EB09106421B0FBF1F000F00F0009
:1021700004432C8106B0BDE8F08700000038014020
:1021800001468888C0F308007047C1F308028280C6
:10219000704700BFFEE700000FB4054B10B503A960
:1021A000044A029800F0DAF810BC5DF814FB000055
:1021B000412B00083C00002002E008C8121F08C1A3
:1021C000002AFAD170477047002001E001C1121FB8
:1021D000002AFBD1704700002DE9FF5F82B000218B
:1021E000DDE90430020DDDF840B0034318D044F6B9
:1021F0001050A2F2FF3242431514119801281FD04B
:10220000A5EB0B00401C5FEA000A4FF000064E4FA2
:10221000DFF83891B046504615D5CAF1000413E0F6
:10222000119801244AA3012801D16FEA0B010298F9
:10223000119AC0E90031C0E9024206B0BDE8F09F42
:10224000CBF10000DFE704460021404A491842EB89
:102250000450CDE9001012E0E00707D032463B46BB
:1022600040464946FDF7D6FF8046894632463B4602
:1022700010461946FDF7CEFF06460F466410002CA7
:10228000EAD1DDE90401DDE90023BAF1000F06DA45
:10229000FDF7C0FF42464B46FDF7BCFF05E0FEF7E9
:1022A0002BF842464B46FEF727F804460E4600221E
:1022B000284BFEF7A1FA03D84FF0FF30014607E0A4
:1022C0000022254B20463146FEF7D7F9FEF77CFA6F
:1022D000102409E0002C0ADB0A220023FEF708F98B
:1022E000039B30321A55641E50EA0102F2D1641C7D
:1022F000039AC4F111031444119A012A03D0012254
:1023000008430DD10AE0084304D000204FF0110B20
:10231000119072E7A3EB0B056D1E0DE05B4504DD2C
:102320004FF0000205F1010504E003DA4FF000026E
:10233000A5F10105002AECD002981199C0E90231FB
:10234000C0E9004579E70000000014400000F03FBC
:10235000300000000000F0430000E03F2DE9FF4F97
:1023600095B09B468946064600250FE2252877D181
:1023700000242746F84A0121059400E0044316F89A
:10238000013F203B01FA03F01042F7D130782A28B0
:1023900011D06FF02F033078A0F13002092A16D83F
:1023A000059A44F0020402EB820203EB420210445D
:1023B000761C0590EFE759F8042B0592002A03DA02
:1023C000504244F40054059044F00204761C3078E6
:1023D0002E2816D116F8010F44F004042A280DD037
:1023E0006FF02F023078A0F13003092B09D807EBEA
:1023F000870302EB4303C718761CF3E759F8047B05
:10240000761C30786C280FD006DC4C2817D0682852
:102410000DD06A2814D104E0742810D07A280FD186
:102420000DE044F400140AE044F4801401E044F4A4
:1024300040147278824202D104F58014761C761C16
:10244000307866280BD013DC582877D009DC0028B8
:1024500075D04528F6D04628F4D047281AD19DE1FA
:1024600018E0632835D0642879D0652812D195E129
:10247000702873D008DC6728F1D069286FD06E28E7
:102480000DD06F2806D1B5E073282CD0752875D0F3
:10249000782874D05A46179990476D1C75E1C4F39B
:1024A0000250022809D003280DD0D9F800100428C2
:1024B0000DD00D6009F1040967E1D9F80010EA17A1
:1024C000C1E90052F6E7D9F800100D80F2E70D706F
:1024D000F0E719F8041B8DF8001000208DF80100BA
:1024E000EA46012003E059F804AB4FF0FF306107E2
:1024F0004FF0000102D40DE008F101018846B94215
:102500000FDA8045F8DB1AF808100029F4D108E04A
:1025100008F1010188468142FADB1AF80810002907
:10252000F6D105985B46A0EB080721463846179A76
:1025300000F094FA284400EB080507E04DE029E19B
:102540000DE01AF8010B5A4617999047B8F10108A7
:10255000F7D25B4621463846179A13E142E00A2239
:102560000092C4F302524FF0000A022A08D059F830
:1025700004CB032A4FEAEC710AD00DE029E02AE0EF
:1025800009F1070121F00702F2E802C1914609E0D2
:102590000FFA8CFC4FEAEC71042A03D14FFA8CFC41
:1025A0004FEAEC71002907DA0A460021DCF1000C41
:1025B00061EB02012D2202E0220504D52B228DF8C9
:1025C0000420012203E0E20701D02022F7E7904631
:1025D00059E00A2102E010220DE010214FF0000A1C
:1025E00000910BE010224FF0000A44F00404082789
:1025F000009203E008224FF0000A0092C4F3025256
:10260000022A05D059F804CB0021032A08D009E09A
:1026100009F1070121F00702F2E802C1914605E045
:102620001FFA8CFC042A01D10CF0FF0C4FF00008BB
:10263000220728D5702806D0009B83F0100353EAA8
:102640000A0305D00EE040228DF80420012208E0A4
:102650005CEA010206D030228DF804208DF80500D6
:1026600002229046009B83F0080353EA0A030AD132
:102670005CEA010201D1620705D530228DF8042001
:102680004FF001087F1E582804D034A003900EA8F4
:1026900002900DE036A0F9E753466046009AFDF738
:1026A00027FF84460398825C0298401E02900270C5
:1026B0005CEA0100F0D1029806A9081A00F1200A8C
:1026C000600702D524F4803400E00127574502DD7D
:1026D000A7EB0A0000E0002000EB0A01009005983B
:1026E0004144401A0590E00306D45B462146179A00
:1026F000059800F0B3F90544002706E001A85A4602
:10270000C05D179990476D1C7F1C4745F6DBE003C1
:102710000CD55B462146179A059800F09FF90544B1
:1027200004E030205A46179990476D1C0099481EC6
:1027300000900029F5DC08E0029802995A460078DA
:10274000491C0291179990476D1CBAF10001AAF13A
:10275000010AF1DC65E10000092801003031323363
:1027600034353637383961626364656600000000CD
:1027700030313233343536373839414243444546B7
:102780000000000000F058F90544761C307800285D
:102790007FF4ECAD19B02846BDE8F08F620700D495
:1027A000062709F1070222F0070CFCE80223E146A4
:1027B00003F000485FEA080C02D00FF2702C0DE025
:1027C0005FEA045C02D50FF2682C07E05FEAC47C84
:1027D00002D00FF2602C01E0AFF2700C4FF0FF3826
:1027E00023F00043CDF850C065280CD006DC452806
:1027F00009D046281DD047283DD13DE0662818D095
:1028000067287ED138E00021112F01DB112000E084
:10281000781CCDE9000106A90EA8FFF7DDFCDDE973
:102820000F010E9A03910021009207F1010A049111
:102830004DE04FF000400097CDE9011006A90EA829
:10284000FFF7CAFCDDE90F0203920E9B11990022EB
:10285000DDF80CA00093049211B9791C00EB010A79
:10286000B7EB0A0004D4C0F1FF3007F1010A04906D
:10287000AAEB0700019044E0012F00DA01270021B4
:10288000112F01DD112000E03846CDE9000106A935
:102890000EA8FFF7A1FCDDE90F010E9A03910021BC
:1028A00004910092BA4621070CD40399514500DAED
:1028B0008A46BAF1010F05DD009AAAF10101515CC7
:1028C000302908D0B84202DA10F1040F06DA0121EB
:1028D000CDE9011015E0AAF10101E9E7002805DCC6
:1028E000049901440491AAEB000102E0411C514506
:1028F00000DD8A460499401A401C01904FF00040C8
:102900000290200704D40198504501DBCDF80480E3
:1029100000208DF84F0002980DF14F07B0F1004FE5
:1029200025D02B200E9002984FF0020800280CDAD8
:10293000404202902D200E9007E00A210298FDF7F8
:10294000C1FD3031029007F8011DB8F10001A8F176
:102950000108F2DC02980028EFD1791E0E98087069
:10296000307800F0200040F0450007F8020D12A872
:10297000C01B00F107081498007800B1012000EB9B
:102980000A01019801EBE07105984144401A401E8C
:102990000590E00306D45B462146179A059800F09F
:1029A0005DF805441498007818B15A461799904775
:1029B0006D1CE00324D55B462146179A059800F06C
:1029C0004DF805441CE00498002807DBDDE903010D
:1029D000884203DD0098405C179901E01799302088
:1029E0005A469047049805F10105401C049001984F
:1029F000401E019004D12E205A46179990476D1C15
:102A0000BAF10001AAF1010ADDDC05E017F8010BBB
:102A10005A46179990476D1CB8F10001A8F10108BA
:102A2000F4DC5B462146179A0598ABE62D000000C2
:102A30002B000000200000002DE9F0410446002595
:102A40001E461746880404D405E039462020B047C6
:102A50006D1C641EF9D52846BDE8F0812DE9F041D2
:102A6000044600251E469046C80301D5302700E0E5
:102A70002027880404D505E041463846B0476D1C40
:102A8000641EF9D52846BDE8F08100000E4A1268A0
:102A900042434FF0E0235A6100229A611A461269BC
:102AA00042F001021A6100BF4FF0E022116901F407
:102AB0008032002AF8D000224FF0E0239A611A46B3
:102AC000126900221A617047340000200E4A126811
:102AD00042434FF0E0235A6100229A611A4612697C
:102AE00042F001021A6100BF4FF0E022116901F4C7
:102AF0008032002AF8D000224FF0E0239A611A4673
:102B0000126900221A6170473800002001B581B0B7
:102B100000200090694601AA50780870107848702B
:102B2000BDF800000CBD0146080601F47F4240EAF2
:102B3000022001F47F0240EA122040EA116070474F
:102B400070B504460D46A1B20548FFF71EFB00BF55
:102B500080210348FFF74CFA0128F9D1002070BD0D
:102B6000003801402DE9F04104460D4600270026BB
:102B700004B135B936A0FFF70FFB4FF0FF30BDE8C9
:102B8000F08100F087F906462868216888420AD05B
:102B900039480068301A41F27071884203D337A077
:102BA000FFF7FAFA01276868616888420AD032485C
:102BB0000068301A41F27071884203D336A0FFF7E3
:102BC000EBFA0127A168A868FDF772FC0AD02A4831
:102BD0000068301A41F27071884203D335A0FFF7C4
:102BE000DBFA0127E868E16888420AD022480068D9
:102BF000301A41F27071884203D334A0FFF7CCFA47
:102C000001272869216988420AD01B480068301AC8
:102C100041F27071884203D333A0FFF7BDFA012758
:102C20006869616988420AD013480068301A41F225
:102C30007071884203D332A0FFF7AEFA0127012F4B
:102C400003D100F027F90C490860384697E70000E7
:102C500067697A436865636B5265706F727420456B
:102C600072726F72202C20496C6C6567616C205009
:102C70006172616D0A0000008405002076616C7548
:102C80006577656E64755F76616C75652043686114
:102C90006E6765640A00000076616C75657368692B
:102CA00064755F76616C7565204368616E67656405
:102CB0000A00000076616C7565565F76616C75651B
:102CC000204368616E6765640A00000076616C7578
:102CD00065736D6F6B655F76616C756520436861C8
:102CE0006E6765640A00000076616C7565434F325B
:102CF0005F76616C7565204368616E6765640A0084
:102D000076616C756554564F435F76616C756520CE
:102D10004368616E6765640A0000000070B5044690
:102D20000D4604B12DB920A0FFF736FA4FF0FF3061
:102D300070BD22686FF00901012001F0C7F828700A
:102D400062680021012001F0C1F86870A068FDF7F9
:102D500053FB064632460021012001F0B7F8A87067
:102D6000E2680021012001F0B1F886B23046FFF799
:102D7000CDFEA5F8030022690021012001F0A6F88C
:102D800086B23046FFF7C2FEA5F805006269002151
:102D9000012001F09BF886B23046FFF7B7FEA5F898
:102DA00007000020C4E7000067697A44617461503D
:102DB0006F696E7473325265706F727444617461BE
:102DC000204572726F72202C20496C6C6567616CB3
:102DD00020506172616D0A0070B5054600F05AF826
:102DE00004461D492846FFF7BDFE012813D11BA04C
:102DF000FFF7D2F9184921392846FFF78FFF28B984
:102E0000092215492139042000F0EEFF1822294635
:102E10001148FDF7A9F91748B4FBF0F100FB114088
:102E2000C8B915480068A04215D014A0FFF7B4F93E
:102E3000094921392846FFF771FF28B909220649B7
:102E40002139042000F0D0FF182229460248FDF75E
:102E50008BF90948046070BD030700206368616E48
:102E60006765642C207265706F7274206461746190
:102E70000A000000C027090088050020496E666F1F
:102E80003A2036303053207265706F72742064615E
:102E900074610A0001480068704700008005002046
:102EA00010B5164890F84800012825D1134890F82D
:102EB000470002281BDAFFF7EDFF1049896E401A20
:102EC000C82819D9FFF7E6FF04460C4890F84730A8
:102ED000826E21460AA0FFF75FF900F0A5FE0748C1
:102EE00090F84700401C054981F8470004E025217F
:102EF00002484730FDF751F910BD00002E060020B2
:102F00005761726E696E673A67697A50726F746F53
:102F1000636F6C526573656E6444617461202564EF
:102F20002025642025640A003EB50446002524B906
:102F300013A0FFF731F9681E3EBD2068009060685D
:102F400001909DF80400401CC0B28DF804000520DB
:102F5000FFF7DCFDADF802000921684600F0A2FE93
:102F60008DF808000921684601F044FE0546002D51
:102F700003DA29460DA0FFF70FF92846DCE7000029
:102F80004552523A2067697A50726F746F636F6C62
:102F9000436F6D6D6F6E41636B2064617461206976
:102FA0007320656D707479200A0000004552523A12
:102FB0002075617274207772697465206572726F12
:102FC00072202564200A0000FEB504460E46002546
:102FD00024B914A0FFF7E0F8681EFEBD684600F0B3
:102FE000D7F912208DF8040060798DF805000620CD
:102FF000FFF78CFDADF802008DF808600A216846E5
:1030000000F050FE8DF809000A21684601F0F2FD3B
:103010000546002D03DA29460DA0FFF7BDF8284626
:10302000DBE7000067697A50726F746F636F6C45FD
:1030300072726F72436D64204572726F72202C2021
:10304000496C6C6567616C20506172616D0A0000AB
:103050004552523A20756172742077726974652006
:103060006572726F72202564200A000030B59DB031
:10307000044600252CB92BA0FFF78EF8681E1DB062
:1030800030BD684600F084F902208DF804006079B4
:103090008DF805002FA103C9CDE9020130A103C9B4
:1030A000CDE9040131A103C9CDE9080132A103C969
:1030B000CDE90601202233A10AA8FDF755F8202208
:1030C00039A10DF15200FDF74FF80020CDF84A006C
:1030D000CDF84E009DF851008DF851009DF851003B
:1030E00040F002018DF851100020FFF70FFDADF800
:1030F00048006F20FFF70AFDADF802007321684613
:1031000000F0D0FD8DF872007321684601F072FD69
:103110000546002D03DA29462CA0FFF73DF8284686
:10312000ADE7000067697A50726F746F636F6C4728
:103130006574446576696365496E666F2045727291
:103140006F72202C20496C6C6567616C2050617235
:10315000616D0A0030303030303030340000000013
:103160003030303030303032000000003033303317
:10317000303030300000000030333031303130300A
:1031800000000000383066356138663565323164DC
:103190003464356339323762333738313436333457
:1031A0003666383100000000313335343261643521
:1031B0003465636234623862626133633164313230
:1031C0006166623436313537000000004552523AAC
:1031D0002075617274207772697465206572726FF0
:1031E00072202564200A00002DE9FE4F80460E461D
:1031F00017464FF0000B00200290814682460025C2
:1032000034460090B8F1000F01D006B137B950A094
:10321000FEF7C2FF4FF0FF30BDE8FE8F404601F0E1
:103220000EFC00F0FF0ABAF1000F02D14FF0FF30A0
:10323000F2E74FF000095DE0012201A9404601F0EC
:103240003BFC8346BBF1000F52D04D480078FF286D
:103250001FD19DF80400FF281BD14A48007848B9C7
:10326000FF202070607002204749088001204549F6
:10327000087034E044480088042830DD4248008863
:10328000A8422CD0FF202070607002203E490880A8
:1032900025E03B480078FF2803D19DF8040055281D
:1032A0001DD038480078012819D19DF8040036490E
:1032B0000988605434480088401C33490880084617
:1032C000008804280BDD0094009C6088FFF71EFC3A
:1032D000001D85B22C480088A84200D10CE09DF862
:1032E00004002749087029480078401C27490870C5
:1032F00009F10109D1459FDB00BF2348008804285C
:1033000023DD21480088A8421FD11F48018820469C
:1033100000F0C8FC02901C480088401E215C029806
:1033200081420FD12A4621463046FCF71DFF3D80E1
:103330000020144908701449088014490870104985
:10334000087069E76FF0010066E7012064E700009C
:1033500067697A50726F746F636F6C4765744F6EF4
:10336000655061636B6574204572726F72202C200A
:10337000496C6C6567616C20506172616D0A000078
:10338000900500208C0500208E050020910500206E
:1033900010B504462CB907A0FEF7FEFE4FF0FF3033
:1033A00010BD002020606060FF2020706070002051
:1033B000F6E700004552523A2067697A50726F74FE
:1033C0006F636F6C48656164496E697420686561FC
:1033D0006420697320656D707479200A0000000014
:1033E0002DE9F04F91B006468B46174699460020CE
:1033F000109082468046002501ACBBF1000F06D13B
:1034000031A0FEF7C9FE681E11B0BDE8F08FB9F11A
:10341000010F06D196F8088008F10600384485B2FD
:1034200001E0781D85B22B46424639462CA0FEF7B6
:10343000B3FEFF2004F8010B04F8010B281204F876
:10344000010B04F8015B3079401C04F8010B707922
:1034500004F8010B002004F8010B04F8019B4FF065
:10346000080AB9F1010F0DD104F8018B0AF1010A24
:1034700001A901EB0A00424606F10901FCF774FEBE
:10348000C244444437B101A901EB0A003A46594607
:10349000FCF76AFE291D01A800F004FC0146E81CA7
:1034A00001AA1154291D01A801F0A4FB1090109845
:1034B000002806DA14A01099FEF76EFE6FF00100E6
:1034C000A2E70020A0E700005B4552525D20206487
:1034D000617461204973204E756C6C200A000000F5
:1034E0006C656E203D202564202C20734469644C5B
:1034F000656E203D202564202C646174615F6C65DD
:103500006E203D2025640A0075617274207772690F
:103510007465206572726F72202564200A000000B5
:103520002DE9F04780460C4617461D46089E94F844
:1035300000900CB105B136B92DA0FEF72DFE4FF06D
:10354000FF30BDE8F087B8F1000F4ED112213448AA
:10355000FCF723FEB9F1010F06D0B9F1020F07D035
:10356000B9F1050F3FD11EE00025002030603BE09F
:103570002B49483101F12100FFF7D0FB78B92848E9
:103580001430416BC5F80110816BC5F8051090F837
:103590003C006872032028700A20306002E04FF07F
:1035A000FF30CEE720E07A1E611C1D484E38FCF744
:1035B000DBFD781E1A496C39C1F83B001021184810
:1035C0006C3890F86C206D3081546D3890F86C0038
:1035D000401C13496C3981F86C00032008700025E9
:1035E0000020306000E000BF00BF0020A9E700001D
:1035F00067697A50726F746F636F6C497373756526
:103600006450726F63657373204572726F72202C01
:1036100020496C6C6567616C20506172616D0A00B5
:103620009A06002070B5044625462CB90FA0FEF777
:10363000B3FD4FF0FF3070BD412205F108010F4886
:10364000FCF792FD0F210D48FA3890F8A220A33024
:103650008154A33890F8A200401C0849FA3981F837
:10366000A200052008700020E5E700004E5450201D
:10367000697320656D707479200A000028070020A6
:1036800010B504462CB9CAA0FEF786FD4FF0FF30F6
:1036900010BD2089FFF73AFA2081D1480078C0F3A5
:1036A0008000217AC1F38001884256D0207AC0F38D
:1036B0008000002829D0207A00F0010078B1002194
:1036C000C84890F87E207F3081547F3890F87E0083
:1036D000401CC44981F87E00C3A0FEF75DFD207A3E
:1036E000C0F34000002838D00121BE4890F87E2069
:1036F0007F3081547F3890F87E00401CB94981F8B2
:103700007E00C1A0FEF748FD27E0207A00F001000E
:1037100078B10021B34890F87E207F3081547F3803
:1037200090F87E00401CAF4981F87E00AEA0FEF705
:1037300033FD207AC0F3400078B10221A94890F807
:103740007E207F3081547F3890F87E00401CA54950
:1037500081F87E00B3A0FEF71FFDA1480078C0F3FA
:10376000C000217AC1F3C00188422CD0207AC10860
:103770009B48007861F3C30099490870207AC0F330
:10378000C00080B10321974890F87E207F3081549B
:103790007F3890F87E00401C924981F87E00A8A0F6
:1037A000FEF7FAFC0FE004218E4890F87E207F306F
:1037B00081547F3890F87E00401C8A4981F87E0051
:1037C000A7A0FEF7E9FC86480078C0F30010217A34
:1037D000C1F3001188422CD0207A0109804800787A
:1037E00061F304107E490870207AC0F3001080B1A4
:1037F00005217C4890F87E207F3081547F3890F8F6
:103800007E00401C774981F87E009DA0FEF7C4FC35
:103810000FE00621734890F87E207F3081547F3876
:1038200090F87E00401C6F4981F87E009CA0FEF756
:10383000B3FC6B480078C0F34010217AC1F340110B
:1038400088422CD0207A41096548007861F3451000
:1038500063490870207AC0F3401080B107216148A5
:1038600090F87E207F3081547F3890F87E00401C95
:103870005C4981F87E0093A0FEF78EFC0FE00821E2
:10388000584890F87E207F3081547F3890F87E0031
:10389000401C544981F87E0091A0FEF77DFC504801
:1038A0004078C0F3C001607AC0F3C00081422CD0E0
:1038B000607AC1084A48407861F3C30048494870BB
:1038C000607AC0F3C00080B10B21464890F87E209A
:1038D0007F3081547F3890F87E00401C414981F848
:1038E0007E0087A0FEF758FC0FE00C213D4890F8C1
:1038F0007E207F3081547F3890F87E00401C39490B
:1039000081F87E0085A0FEF747FC35484078C0F37B
:103910000011607AC0F3001081422CD0607A010956
:103920002F48407861F304102D494870607AC0F345
:10393000001080B109212B4890F87E207F308154FF
:103940007F3890F87E00401C264981F87E007BA0DD
:10395000FEF722FC0FE00A21224890F87E207F30FB
:1039600081547F3890F87E00401C1E4981F87E000B
:1039700079A0FEF711FC0D211A4890F87E207F30C7
:1039800081547F3890F87E00401C164981F87E00F3
:10399000607A00F0070081F8ED00084690F8ED101D
:1039A00074A0FEF7F9FB02200E49087000206FE6B4
:1039B00067697A50726F746F636F6C4D6F64756C6A
:1039C00065537461747573204572726F72202C2078
:1039D000496C6C6567616C20506172616D0A000012
:1039E000920500202E0600204F6E426F61726469BE
:1039F0006E673A20536F66744150206F722057658E
:103A000062206D6F64650A004F6E426F6172646977
:103A10006E673A204169724C696E6B206D6F646508
:103A20000A0000004F6E426F617264696E673A204F
:103A300053746174696F6E206D6F64650A000000D5
:103A400057694669207374617475733A20696E20F2
:103A500062696E64696E67206D6F64650A000000BC
:103A600057694669207374617475733A206F757471
:103A70002062696E64696E67206D6F64650A00007C
:103A800057694669207374617475733A20636F6E69
:103A90006E656374656420726F757465720A0000E8
:103AA00057694669207374617475733A2064697349
:103AB000636F6E6E656374656420726F7574657292
:103AC0000A00000057694669207374617475733A7F
:103AD00020636F6E6E6563746564206D326D0A00DD
:103AE00057694669207374617475733A2064697309
:103AF000636F6E6E6563746564206D326D0A0000DD
:103B000057694669207374617475733A20617070E7
:103B100020636F6E6E6563740A0000005769466922
:103B2000207374617475733A206E6F206170702019
:103B3000636F6E6E6563740A000000005769466922
:103B4000207374617475733A20696E2074657374A0
:103B5000206D6F64650A00005769466920737461BF
:103B60007475733A206F75742074657374206D6F6B
:103B700064650A0052535349206973202564200A62
:103B80000000000070B5044625462CB919A0FEF7C8
:103B900003FB4FF0FF3070BD1B48A9680160E96866
:103BA0004160298A0181A97C8172A0F1EE01B1F8FE
:103BB000EE00FEF7ABFF1449EE39A1F8EE00D1F8A4
:103BC000F600FEF7B0FF1049EE39C1F8F6000E21FD
:103BD0000D48EE3890F8902091308154913890F84B
:103BE0009000401C0849EE3981F8900004200870CC
:103BF0000020D0E74552523A204E5450206973209D
:103C0000656D707479200A001C07002010B5FFF75D
:103C100041F9044600BFFFF73DF9001BB0F5167FE0
:103C2000F9D900F0E9FE10BD10B500240E4890F857
:103C3000480000B910BD0DA0FEF7AEFA0A48B0F872
:103C40006610493000F0D6FF04460748B0F8660019
:103C5000A04202D00DA0FEF79FFAFFF71BF9024920
:103C6000886600BFE6E700002E0600205761726EEE
:103C7000696E673A2074696D656F75742C20726582
:103C800073656E642064617461200A004552523A83
:103C900020726573656E6420646174612065727260
:103CA0006F720A0010B502460024002302B109B960
:103CB000002010BD022303E0D05C2044C4B25B1C92
:103CC000481E9842F8D82046F3E7000070B5044635
:103CD0000D462CB90EA0FEF75FFA4FF0FF3070BD15
:103CE00025211148FCF759FA2A4621460E48801C26
:103CF000FCF73AFA0C484738A0F86650012180F8E2
:103D00004810FFF7C7F80849473988660020E6E7FA
:103D10004552523A206461746120697320656D7068
:103D20007479200A000000007506002070B5044672
:103D3000094D2CB909A0FEF72FFA4FF0FF3070BDE6
:103D40002879401C2179884204D125210248801E0F
:103D5000FCF723FA0020F2E7770600204552523A9A
:103D6000206461746120697320656D707479200A24
:103D70000000000070B504460D46002624B90AA0D4
:103D8000FEF70AFA701E70BD2A4621460E4800F062
:103D9000E4FE0646AE4205D00CA0FEF7FDF94FF05A
:103DA000FF30F0E73046EEE74552523A2067697A35
:103DB0005075744461746120627566206973206572
:103DC0006D707479200A0000690700204552523A4C
:103DD000204661696C656420746F20726257726955
:103DE0007465200A00000000F0B585B005460E4657
:103DF000174600242EB91FA0FEF7CEF9601E05B0AD
:103E0000F0BD6846FFF7C4FA05208DF8040023488A
:103E100090F83F10D0F83F00401C204AC2F83F0005
:103E2000C8B28DF805008DF808500F20FEF76EFE21
:103E3000ADF802003A4631460DF10900FCF794F95D
:103E400013216846FFF72EFF8DF8120013216846F4
:103E500000F0D0FE0446002C06DA214610A0FEF742
:103E60009BF96FF00100CAE713216846FFF72EFFA8
:103E70002046C4E767697A5265706F727444617452
:103E800061204572726F72202C20496C6C656761ED
:103E90006C20506172616D0A000000002E06002047
:103EA0004552523A207561727420777269746520A8
:103EB0006572726F72202564200A00000248006853
:103EC000401C0149086070478005002010B503467A
:103ED0000020541AB4FBF3F010BD00002DE9FF5F81
:103EE00006460D4693460027A846A9462C46AA46F4
:103EF00006B125B94FF0FF3004B0BDE8F09F0027B0
:103F00003EE0701CC05D112836D2DFE800F0090ADF
:103F10000B35350C0D0E0F35353535101A291600B9
:103F20002BE02AE029E028E027E026E025E099F8C8
:103F3000001016A0FEF730F91FE017A0FEF72CF9CD
:103F40001BE0A17962792379A068CDE90032CDE93F
:103F50000210E378A278218814A0FEF71DF90CE086
:103F60001DA0FEF719F921A0FEF716F99AF8001026
:103F700022A0FEF711F900E000BF00BF781CC7B215
:103F80003078B842BDDC0020B6E7000052535349F8
:103F90002025640A000000005452414E5350415203
:103FA000454E545F44415441200A00005749464958
:103FB0005F4E5450203A205B25642D25642D2564E6
:103FC00020253032643A253032643A253032645D3F
:103FD0005B25645D200A00004D4F44554C45204947
:103FE0004E464F202E2E2E0A000000005749462034
:103FF0004D4F44554C45202E2E2E0A006D6F647592
:104000006C6554797065203A205B25645D200A0058
:104010002DE9F04192B00546002600200290019063
:1040200000248046002735B981A0FEF7B5F8601E50
:1040300012B0BDE8F081FEF733FF02AA8649874837
:10404000FFF7D2F80646002E71D185A0FEF7A4F83E
:10405000814C20790F284FD00ADC0E2873D2DFE87C
:1040600000F07216721A7272433872724472453CD2
:10407000182852D006DC112847D0142846D016281C
:1040800061D134E0222854D02A285CD130E0204687
:10409000FEF7ECFF5FE0E279A17976A0FEF77CF80D
:1040A00001A8009007F10900BDF808301A1A6A4803
:1040B0000830C11903AB4046FFF732FA40B9E37943
:1040C00003A92046019AFFF78BF96EA0FEF764F86A
:1040D00041E02046FEF728FF3DE02046FEF724FFA2
:1040E0002046FFF7CDFA36E000BF00BF00BF00BF9B
:1040F0002046FFF71BFE2EE02046FEF715FF64A0CA
:10410000FEF74AF8FFF782FD25E024E02046FFF79E
:104110000DFE64A0FEF740F81DE02046FFF706FE06
:104120002046FFF72FFD67A0FEF736F813E013E0F7
:1041300009E02046FFF7FAFD2046FFF773FA67A073
:10414000FEF72AF807E002212046FEF73DFF6AA0AD
:10415000FEF722F800BF0DE016F1020F0AD13E4C27
:1041600001212046FEF730FF69A0FEF715F86FF039
:1041700001005DE73848401E0078062850D2DFE88D
:1041800000F04F0313232F3F00203349491E0870CE
:104190001822BD31A1F15100FFF7A0FE12212E48D7
:1041A0006B30FBF7FAFF3CE000202B49491E0870FA
:1041B0000122ED31A1F16F00FFF790FE1221264898
:1041C0007D30FBF7EAFF2CE000202349491E0870F0
:1041D0000846D0F83B201E316C30FFF77FFE20E010
:1041E00000201D49491E08700C22EE31A1F15E002D
:1041F000FFF774FE122118488F30FBF7CEFF10E056
:1042000000201549491E08704122FA31A1F15800D9
:10421000FFF764FE41211048A130FBF7BEFF00E02C
:1042200000BF00BF2846FEF7D7FD002000E70000D2
:1042300047697A7769747348616E646C652045726A
:10424000726F72202C20496C6C6567616C20506124
:1042500072616D0A000000002F060020690700202F
:10426000476574204F6E65205061636B6574210A49
:1042700000000000666C6167202578202578200A00
:104280000000000041636B44617461203A200A0021
:104290007265706F72743A4D4355207265626F6F2C
:1042A00074210A0041636B2050524F4455435449D6
:1042B0004F4E5F4D4F4445207375636365737320A4
:1042C0000A00000041636B204745545F5554542059
:1042D00073756363657373200A00000041636B208C
:1042E0004745545F4D6F64756C65207375636365F6
:1042F0007373200A000000004552523A20636D6437
:1043000020636F6465206572726F72210A0000007D
:104310004552523A20636865636B2073756D206562
:1043200072726F72210A000010B53A200A490860C3
:104330000A48C860084600F0B4FB18B908A0FDF7A9
:104340002BFF02E00BA0FDF727FF40F23B110E48C8
:10435000FBF723FF10BD000069070020790700204C
:10436000726243726561746520537563636573732C
:10437000200A0000726243726561746520466169BB
:104380006C64200A000000002E06002030B587B0C3
:1043900005460024062D7CD2DFE805F003305F904F
:1043A000BDEA01A8FEF7F4FF0B208DF808008B484A
:1043B00090F83F10D0F83F00401C884AC2F83F00F8
:1043C000C8B28DF809000520FEF7A0FBADF8060085
:1043D000092101A8FFF766FC8DF80C00092101A84E
:1043E00000F008FC0446002C03DA21467CA0FDF70F
:1043F000D3FE092101A8FFF769FCEAE004A8FEF753
:10440000C7FF09208DF81400744890F83F10D0F8C9
:104410003F00401C714AC2F83F00C8B28DF8150039
:104420008DF818500620FEF771FBADF812000A2136
:1044300004A8FFF737FC8DF819000A2104A800F042
:10444000D9FB0446002C03DA214665A0FDF7A4FE43
:104450000A2104A8FFF73AFCBBE004A8FEF798FF86
:1044600009208DF814005D4890F83F10D0F83F0007
:10447000401C5A4AC2F83F00C8B28DF815008DF8AA
:1044800018500620FEF742FBADF812000A2104A8DE
:1044900000E09AE0FFF706FC8DF819000A2104A855
:1044A00000F0A8FB0446002C03DA21464CA0FDF7DF
:1044B00073FE0A2104A8FFF709FC8AE001A8FEF7B1
:1044C00067FF13208DF80800444890F83F10D0F89B
:1044D0003F00401C414AC2F83F00C8B28DF80900B5
:1044E0000520FEF713FBADF80600092101A8FFF730
:1044F000D9FB8DF80C00092101A800F07BFB0446D4
:10450000002C03DA214636A0FDF746FE092101A85A
:10451000FFF7DCFB5DE001A8FEF73AFF15208DF800
:1045200008002E4890F83F10D0F83F00401C2B4A5E
:10453000C2F83F00C8B28DF809000520FEF7E6FA80
:10454000ADF80600092101A8FFF7ACFB8DF80C00BF
:10455000092101A800F04EFB0446002C03DA214695
:104560001FA0FDF719FE092101A8FFF7AFFB30E0FE
:1045700001A8FEF70DFF29208DF80800174890F8D4
:104580003F10D0F83F00401C144AC2F83F00C8B2A8
:104590008DF809000520FEF7B9FAADF806000921EB
:1045A00001A8FFF77FFB8DF80C00092101A800F09E
:1045B00021FB0446002C03DA214609A0FDF7ECFD9F
:1045C000092101A8FFF782FB03E00CA0FDF7E4FD41
:1045D00000BF00BF204607B030BD00002E060020FF
:1045E0004552523A20756172742077726974652061
:1045F0006572726F72202564200A00004552523A9B
:10460000204366674D6F6465206572726F72210A80
:104610000000000086B04FF4A060FCF77FFEFCF7BE
:1046200065FEFDF729FC4820FDF764FAFDF764F804
:10463000FCF76CF9FCF7AEFBFCF7B2FAFCF798FE5E
:10464000FCF776FEFDF774F9FCF7CEFC0220FFF7CD
:104650009DFEB9A0FDF7A0FDBBA103C9CDE90401F2
:10466000BBA103C9CDE9020164E1BB480078BB49A5
:104670000860BB4800784860BA4800688860BA485B
:104680000068C860B94800880861B9480088486176
:1046900000F0DCFAB148FFF7BBFCB6480068A0B9EF
:1046A0004FF48071B448FCF77BFC70B90A20FEF728
:1046B000EDF94FF48071B048FCF772FC28B9012085
:1046C000AC490860ADA0FDF767FDAA480068012865
:1046D000CAD10020FCF772FCA34908600120FCF756
:1046E0006DFC4FEA400B5846FBF775FE80464FF0D5
:1046F0006632A54BFBF78EFD06460022A34BFBF767
:10470000FBFD0446FBF7B8FE9649086098499748B8
:10471000FDF729F992499048FCF7CFFA8E480178C5
:104720009BA0FDF739FD8E4801789CA0FDF734FD74
:104730008E4801889CA0FDF72FFD8D4801889DA023
:10474000FDF72AFD884801689EA0FDF725FD8548F4
:104750000068FBF77EFE044622460B469CA0FDF750
:104760001BFD9E497F480068FBF722FD0446FBF7CE
:1047700043FE9B4908609B497A480068FBF718FD97
:104780000446FBF739FE98490860954800680A21FD
:1047900090FBF1F201FB1200914908609248006819
:1047A000642190FBF1F201FB12008F4908604FF089
:1047B0002E0AFCF7BDFD072200210846FCF7A0FEEB
:1047C000082200211220FCF79BFE09220021242050
:1047D000FCF796FE1020022300905F48027800212B
:1047E0002820FCF7F9FE0A2200214820FCF788FE69
:1047F0000B2200215A20FCF783FE0C2200216C20A2
:10480000FCF77EFE1020022300905548027800211C
:104810007020FCF7E1FE122203210020FCF770FE5D
:10482000132203211220FCF76BFE14220321242003
:10483000FCF766FE4B480068FBF7F7FD04461020C6
:1048400001232246032100902820FCF7C5FE524692
:1048500003213420FCF788FE1020012300906048DB
:10486000032102684020FCF7B7FE102001230090CE
:104870005D48032102684C20FCF7AEFE0D220621A4
:104880000020FCF73DFE0E2206211220FCF738FE28
:104890000F2206212420FCF733FE102206213620A9
:1048A000FCF72EFE112206214820FCF729FE1020DD
:1048B000042300902C48062102685020FCF78CFE4F
:1048C0004FF47A70FEF7E2F8FCF732FD04AA0021FB
:1048D0000846FCF7C3FE10200423009023480288FA
:1048E00000211E20FCF778FE02AA03210020FCF71D
:1048F000B5FE1020042300901D48028803212820C3
:10490000FCF76AFE4FF400711B48FCF749FB80B9C5
:104910000A20FEF7BBF84FF400711748FCF740FB84
:1049200038B900201349086030A0FDF735FCFCF7CA
:10493000FFFC00BF99E60000BBFAD6C7D4C6B3F5AA
:10494000CABCBBAF0A000000434F323A000000006F
:1049500054564F433A0000001000002094050020F8
:10496000110000201C00002014000020180000206E
:104970001A0000200C00002000100140D4CBD0D041
:10498000C4A3CABDA3A1000066660A4000FEAF40F2
:10499000CEC2B6C8A3BA256400000000CAAAB6C831
:1049A000A3BA256400000000434F32C5A8B6C8A3CF
:1049B000BA25640054564F43C5A8B6C8A3BA2564A7
:1049C00000000000D1CCCEEDA3BA256400000000A9
:1049D000B5E7D1B9A3BA252E326600000000204108
:1049E000040000200000C84208000020B4FDBBFA0B
:1049F000C4A3CABDA3A10000012080F3138800BF97
:104A000000BF0748006800F4E06006490843001D45
:104A100003490860BFF34F8F00BF00BFFEE70000EF
:104A20000CED00E00000FA0510B50246012000E0A0
:104A300050430B1EA1F10104E1B2F9D110BD00B544
:104A4000024612B94FF0FF3000BD506891688842AD
:104A500001D10020F8E750689168884203D290683D
:104A60005168401AF0E7104600F014F85168936856
:104A7000C91A401AE8E730B5044614B94FF0FF30C0
:104A800030BD204600F006F805462046FFF7D7FF68
:104A9000281AF5E7014611B94FF0FF307047086852
:104AA000FCE7014611B94FF0FF307047C868486015
:104AB000C86888600020F8E72DE9F04104460F46F9
:104AC0001646002514B9681EBDE8F08117B94FF0ED
:104AD000FF30F9E76068A168884214D22046FFF7EA
:104AE000AEFFB04201D9304602E02046FFF7A7FFF3
:104AF000054661682A463846FBF736FB606828445D
:104B000060602846E0E72046FFF7C4FF6168E2687E
:104B1000891A401AB0420AD9354661682A46384691
:104B2000FBF722FB6068284460602846CCE72046FB
:104B3000FFF7B0FF6168E268891A451A61682A4682
:104B40003846FBF711FBE0686060721B791920465C
:104B5000FFF7B2FF05442846B6E72DE9F0410446C9
:104B60000F461546002604B11FB94FF0FF30BDE8CF
:104B7000F0812046FFF77FFFA84202D86FF00100C6
:104B8000F5E76068A16888422AD82046FFF782FFCF
:104B9000A168E268891A461AB54213D8A0682A4665
:104BA0003946FBF7E1FAA0682844A0602046FFF7E9
:104BB00071FFE1680844A168884201D1E068A06003
:104BC0002846D4E7A06832463946FBF7CDFAE068BC
:104BD000A060AA1BB9192046FFF7BFFF3044C6E703
:104BE000A0682A463946FBF7BFFAA0682844A060AF
:104BF0002846BCE770B505460E4600240DB9601E78
:104C000070BD00241BE0295D0F48FDF7BEFA00BF10
:104C100080210D48FDF7ECF90028F9D0022C0DD3C6
:104C2000285DFF280AD155210748FDF7AEFA00BFDD
:104C300080210548FDF7DCF90028F9D0641CB44256
:104C4000E1D33046DCE70000004800407047000038
:104C5000000000000000002F000000000700070017
:104C600000147F147F1400242A7F2A120062640833
:104C700013230036495522500000050300000000B0
:104C80001C224100000041221C000014083E0814B0
:104C90000008083E0808000000A06000000808089E
:104CA0000808000060600000002010080402003EB8
:104CB0005149453E0000427F400000426151494653
:104CC000002141454B31001814127F100027454543
:104CD0004539003C4A494930000171090503003655
:104CE0004949493600064949291E00003636000068
:104CF000000056360000000814224100001414146D
:104D00001414000041221408000201510906003267
:104D10004959513E007C1211127C007F49494936A5
:104D2000003E41414122007F4141221C007F494910
:104D30004941007F09090901003E4149497A007F44
:104D40000808087F0000417F4100002040413F01EA
:104D5000007F08142241007F40404040007F020C49
:104D6000027F007F0408107F003E4141413E007FEA
:104D700009090906003E4151215E007F09192946B3
:104D80000046494949310001017F0101003F40408F
:104D9000403F001F2040201F003F4038403F00633D
:104DA000140814630007087008070061514945435F
:104DB00000007F41410000552A552A55000041411D
:104DC0007F00000402010204004040404040000017
:104DD00001020400002054545478007F48444438B1
:104DE00000384444442000384444487F0038545438
:104DF000541800087E0901020018A4A4A47C007FB6
:104E0000080404780000447D4000004080847D0058
:104E1000007F102844000000417F4000007C0418FF
:104E20000478007C0804047800384444443800FCCA
:104E3000242424180018242418FC007C08040408E6
:104E400000485454542000043F444020003C40405B
:104E5000207C001C2040201C003C4030403C004492
:104E600028102844001CA0A0A07C004464544C449A
:104E700014141414141400000000000000000000BA
:104E8000000000000000000000F80000000000002A
:104E900000333000000000100C06100C060000006B
:104EA00000000000000040C07840C0784000043F8F
:104EB00004043F040400007088FC0830000000185F
:104EC00020FF211E0000F008F000E0180000002183
:104ED0001C031E211E0000F00888700000001E2127
:104EE00023241927211010160E00000000000000D6
:104EF000000000000000000000E0180402000000B4
:104F000000071820400000020418E00000000040E4
:104F1000201807000000404080F08040400002025E
:104F2000010F01020200000000F00000000001017A
:104F3000011F01010100000000000000000080B01E
:104F400070000000000000000000000000000001F0
:104F5000010101010101000000000000000000301B
:104F600030000000000000000000806018040060B5
:104F700018060100000000E010080810E000000F13
:104F8000102020100F00001010F80000000000207A
:104F9000203F2020000000700808088870000030C2
:104FA000282422213000003008888848300000186A
:104FB000202020110E000000C02010F80000000783
:104FC0000424243F240000F80888880808000019F9
:104FD000212020110E0000E0108888180000000F2A
:104FE000112020110E0000380808C8380800000001
:104FF000003F000000000070880808887000001C56
:10500000222121221C0000E010080810E00000000E
:10501000312222110F00000000C0C000000000007B
:1050200000303000000000000080000000000000A0
:105030008060000000000000804020100800000197
:10504000020408102000404040404040400004045A
:105050000404040404000008102040800000002024
:10506000100804020100007048080808F000000061
:10507000003036010000C030C828E810E0000718F2
:10508000272423140B000000C038E0000000203C5F
:1050900023020227382008F8888888700000203F03
:1050A000202020110E00C03008080808380007181A
:1050B00020202010080008F808080810E000203F11
:1050C000202020100F0008F88888E8081000203FF2
:1050D00020202320180008F88888E8081000203FC6
:1050E000200003000000C03008080838000007183E
:1050F0002020221E020008F808000008F808203FBF
:10510000210101213F20000808F8080800000020C4
:10511000203F2020000000000808F8080800C08098
:1051200080807F00000008F888C028180800203F11
:1051300020012638200008F8080000000000203F69
:1051400020202020300008F8F800F8F80800203F60
:10515000003F003F200008F830C00008F808203F5A
:10516000200007183F00E01008080810E0000F10AA
:10517000202020100F0008F808080808F000203F41
:10518000210101010000E01008080810E0000F18DC
:10519000242438504F0008F8888888887000203F01
:1051A0002000030C30200070880808083800003800
:1051B000202121221C00180808F808081800000007
:1051C000203F2000000008F808000008F808001F31
:1051D000202020201F000878880000C83808000020
:1051E00007380E010000F80800F80008F800033C3A
:1051F0000700073C03000818688080681808203002
:105200002C03032C30200838C800C83808000000E0
:10521000203F2000000010080808C8380800203887
:10522000262120201800000000FE020202000000DB
:10523000007F40404000000C30C000000000000033
:1052400000010638C00000020202FE00000000401B
:1052500040407F0000000000040202020400000041
:10526000000000000000000000000000000080803E
:105270008080808080800002020400000000000026
:105280000000000000000000808080800000001905
:10529000242222223F2008F8008080000000003FE6
:1052A000112020110E000000008080800000000E00
:1052B000112020201100000000808088F800000EDE
:1052C000112020103F200000808080800000001FFF
:1052D000222222221300008080F088888818002073
:1052E000203F202000000000808080808000006B34
:1052F00094949493600008F8008080800000203F20
:10530000210000203F20008098980000000000202D
:10531000203F20200000000000809898000000C07E
:105320008080807F000008F8000080808000203F9F
:1053300024022D302000000808F8000000000020A2
:10534000203F202000008080808080808000203FDF
:1053500020003F20003F8080008080800000203FB0
:10536000210000203F200000808080800000001F7E
:10537000202020201F00808000808000000080FF0F
:10538000A12020110E000000008080808000000E0F
:10539000112020A0FF80808080008080800020205D
:1053A0003F212000010000008080808080000033C9
:1053B000242424241900008080E080800000000064
:1053C000001F202000008080000000808000001F5F
:1053D000202020103F2080808000008080800001FD
:1053E0000E300806010080800080008080800F3031
:1053F0000C030C300F0000808000808080000020B3
:10540000312E0E31200080808000008080808081DD
:105410008E7018060100008080808080800000214E
:10542000302C2221300000000000807C02020000AD
:105430000000003F404000000000FF0000000000AE
:105440000000FF0000000002027C8000000000401D
:10545000403F0000000000060101020204040000B9
:105460000000000000000000885400080000002038
:1054700094050000AE0800084C5600089405002072
:1054800024060000C8210008920001031401000155
:1054900020050102030404C00906070809020406E6
:1054A000081E13F0100122FF050213F03E130F0433
:1054B0000122FF0502110F1E10094040405F5555A3
:1054C000557504125F0C011121000C11200F0949C0
:1054D00089790909090F201F200800FE02424ACAE3
:1054E0004A030004114202FE20000E12FF40504CFD
:1054F0004340404F50505C40FFA013F8880122FF0A
:10550000050213F8C0131F0801227F2003109F809B
:10551000E233808201040914E2A2928A86828080AA
:105520004104041540807F5B100B002424A4FEA3DB
:10553000220022CCAA05123E2407080601FF000122
:105540003EF00604FF0202029E357C539008C3F22F
:105550000840000F100444827F01808040432C10DB
:10556000284681A014051060028C45229201051284
:105570003F100A04047E01407E42427E020712422E
:105580007E812009FC242424FC25262408061004FE
:10559000E0040D16308F80844C55252525554C8010
:1055A00020011B01031A36361E31C041BF0117C04E
:1055B000000B904448507F40407F504844C0100C3E
:1055C000807000FF1008FE424242FA040910C10830
:1055D0000E11806018070810FF50484641424CC128
:1055E0001009100C055555D5057F060805125505FF
:1055F000140C201C0A8AA96B352525ABE908A403E5
:10560000051340080B14201808C838CF080828983C
:1056100000040B90040201FF4021060A1120400DF6
:105620003EC0032D41042DC1033EFAC8030D106096
:10563000031C0480601FA304193E0C051240404463
:0C56400058A004013FC001100100000050
:0400000508000131BD
:00000001FF
