:020000040800F2
:10000000200400204501000851060008F5030008FF
:100010004D0600082F020008D90A00080000000061
:10002000000000000000000000000000B907000808
:10003000330200080000000053060008E50800082D
:100040005F0100085F0100085F0100085F01000810
:100050005F0100085F0100085F0100085F01000800
:100060005F0100085F0100085F0100085F010008F0
:100070005F0100085F0100085F0100085F010008E0
:100080005F0100085F0100085F0100085F010008D0
:100090005F0100085F0100085F0100085F010008C0
:1000A0005F0100085F0100085F0100085F010008B0
:1000B0005F0100085F0100085F0100085F010008A0
:1000C0005F0100085F0100085F0100085F01000890
:1000D0005F0100085F0100085F0100085F01000880
:1000E0005F0100085F0100085F0100085F01000870
:1000F0005F0100085F0100085F0100085F01000860
:100100005F0100085F0100085F0100085F0100084F
:100110005F0100085F0100085F0100085F0100083F
:100120005F0100085F0100085F0100085F0100082F
:10013000DFF80CD000F04AF800480047650E0008D0
:10014000200400200648804706480047FEE7FEE7F7
:10015000FEE7FEE7FEE7FEE7FEE7FEE7FEE7FEE777
:10016000E9080008310100082DE9F05F054600208C
:1001700092469B4688460646814640241BE0284618
:1001800041464746224600F042F853465A46C01AB6
:10019000914110D311461846224600F029F82D1A35
:1001A00067EB01084F4622460120002100F020F8AD
:1001B00017EB00094E41201EA4F10104DFDC484684
:1001C00031462A464346BDE8F09F0000064C074DE5
:1001D00006E0E06840F0010394E807009847103417
:1001E000AC42F6D3FFF7A8FF080F0008280F00085D
:1001F000202A04DB203A00FA02F1002070479140E7
:10020000C2F1200320FA03F3194390407047202ADB
:1002100004DB203A21FA02F00021704721FA02F3B0
:10022000D040C2F12002914008431946704700BFF8
:10023000FEE770470146104A12884A434FF0E02318
:100240005A6100229A611A46126942F001021A614B
:1002500000BF4FF0E022106900F001021AB100F473
:100260008032002AF5D04FF0E022126900224FF0D0
:10027000E0231A619A617047160000200146104A77
:1002800012884A434FF0E0235A6100229A611A46CD
:10029000126942F001021A6100BF4FF0E0221069BA
:1002A00000F001021AB100F48032002AF5D04FF0BC
:1002B000E022126900224FF0E0231A619A61704730
:1002C000140000202DE9F041024600250026002000
:1002D00000230024002791F803C00CF00F0591F8CB
:1002E00003C00CF0100CBCF1000F03D091F802C059
:1002F0004CEA050591F800C0BCF1000F31D014683C
:1003000000202BE04FF0010C0CFA00F3B1F800C014
:100310000CEA03069E4220D183004FF00F0C0CFA2A
:1003200003F7BC4305FA03FC4CEA040491F803C04C
:10033000BCF1280F06D14FF0010C0CFA00FCC2F8FA
:1003400014C00AE091F803C0BCF1480F05D14FF08A
:10035000010C0CFA00FCC2F810C0401C0828D1D3D4
:100360001460B1F800C0BCF1FF0F34DD5468002008
:100370002EE000F1080C4FF0010808FA0CF3B1F878
:1003800000C00CEA03069E4221D183004FF00F0CFF
:100390000CFA03F7BC4305FA03FC4CEA040491F899
:1003A00003C0BCF1280F05D100F1080C08FA0CF8C5
:1003B000C2F8148091F803C0BCF1480F07D100F1D6
:1003C000080C4FF0010808FA0CF8C2F81080401C25
:1003D0000828CED35460BDE8F0810246002093681F
:1003E0000B400BB1012000E00020704741617047D5
:1003F0000161704700BFFEE708B50121082000F049
:1004000029F914208DF803004FF44060ADF8000086
:1004100003208DF8020069460448FFF753FF4FF4AC
:1004200040610248FFF7E4FF08BD0000000C0140F6
:1004300070B5054600244FF480611648FFF7D6FFDB
:1004400000F03AFD00261BE04FF480611148FFF7F1
:10045000CFFF0220FFF712FF6006040E4FF4006189
:100460000C48FFF7BAFF08B144F001044FF4806173
:100470000848FFF7BBFF0220FFF700FF701CC6B261
:10048000082EE1DB15B900F007F801E000F056F89E
:10049000204670BD000C014010B54FF480610D483E
:1004A000FFF7A4FF00F01AFD4FF400610948FFF7C1
:1004B0009DFF0220FFF7E2FE4FF480610548FFF741
:1004C00097FF0220FFF7DAFE4FF480610148FFF743
:1004D0008DFF10BD000C014070B504464FF48061E3
:1004E0001548FFF783FF00F0F9FC002521E004F038
:1004F000800028B14FF400610F48FFF779FF04E056
:100500004FF400610C48FFF771FF6006040E4FF4D2
:1005100080610948FFF76CFF0220FFF7AFFE4FF440
:1005200080610548FFF762FF0220FFF7A7FE681C05
:10053000C5B2082DDBDB70BD000C014010B54FF4D7
:1005400080610C48FFF752FF00F0C8FC4FF40061D7
:100550000848FFF74DFF4FF480610648FFF748FF5A
:100560000220FFF78BFE4FF480610248FFF73EFF49
:1005700010BD0000000C014010B54FF480610E4822
:10058000FFF734FF00F0AAFC4FF400610A48FFF7C0
:100590002FFF4FF480610848FFF72AFF0220FFF782
:1005A0006DFE4FF400610448FFF720FF4FF48061B7
:1005B0000148FFF71BFF10BD000C014010B54FF4C0
:1005C00080610C48FFF712FF00F088FC4FF40061D7
:1005D0000848FFF70BFF4FF480610648FFF708FF5C
:1005E0000220FFF74BFE4FF400610248FFF700FFC7
:1005F00010BD0000000C014010B500244FF48061D4
:100600001148FFF7F3FE00F057FC4FF480610E48ED
:10061000FFF7EEFE0220FFF731FE07E0601CC4B2D8
:10062000322C03DDFFF7CAFF012010BD4FF400613B
:100630000548FFF7D2FE0028F0D14FF48061024850
:10064000FFF7D4FE0020F0E7000C014000BFFEE7FA
:100650007047704729B1064A92690243044B9A6178
:1006600004E0034A92698243014B9A61704700009B
:100670000010024030B500210022002400232D4D3F
:100680006D6805F00C0121B1042905D0082923D19A
:1006900005E0294D056022E0274D05601FE0254D4E
:1006A0006D6805F47012234D6D6805F480340225E1
:1006B00005EB92421CB9214D554305600BE01D4DE1
:1006C0006D6805F400351DB11C4D5543056002E011
:1006D000194D5543056002E0174D056000BF00BF8E
:1006E000144D6D6805F0F0010909154D6B5C056846
:1006F000DD4045600F4D6D6805F4E061090A104D5D
:100700006B5C4568DD4085600A4D6D6805F460519D
:10071000C90A0B4D6B5C4568DD40C560054D6D68D1
:1007200005F44041890B074D6B5CC568B5FBF3F5DB
:10073000056130BD0010024000127A0000093D0042
:10074000000000201000002070B504460025FFF7CF
:1007500013FFA020FFF7C0FEFFF74EFF00B117E028
:100760002046FFF7B9FEFFF747FF00B110E0FFF7A3
:1007700003FFA120FFF7B0FEFFF73EFF00B107E047
:100780000120FFF755FE0546FFF718FF284670BD0C
:1007900002A000F0D5F9FF20F9E70000526561647E
:1007A000427974655F4154323443585820657272FF
:1007B0006F722121210A0000704710B500F002F885
:1007C00010BD00000CB50020019000903348006877
:1007D00040F480303149086000BF3048006800F4C0
:1007E000003000900198401C0190009818B90198C1
:1007F000B0F5A06FF1D12948006800F4003010B1C5
:100800000120009001E0002000900098012843D1D1
:100810002348006840F0100021490860084600683D
:1008200020F0030008600846006840F002000860FD
:100830001A484068194948600846406848600846B8
:10084000406840F4806048600846406820F47C10AE
:1008500048600846406840F4E81048600846006870
:1008600040F08070086000BF0C48006800F0007025
:100870000028F9D00948406820F003000749486083
:100880000846406840F00200486000BF03484068E6
:1008900000F00C000828F9D10CBD00000010024047
:1008A000002002404FF0E021096921F004014FF0DF
:1008B000E0221161C21700EB5272C2F3CF02074B64
:1008C0001A801946098801EB4102C2EBC1114FF6AB
:1008D000FF7202EAC101024A118070471400002031
:1008E000160000207047000010B51348006840F063
:1008F00001001149086008464068104908400E4947
:100900004860084600680E4908400B4908600846E0
:10091000006820F4802008600846406820F4FE004B
:1009200048604FF41F008860FFF747FF4FF00060FA
:100930000449086010BD0000001002400000FFF8EC
:10094000FFFFF6FE08ED00E021B1828942F400527B
:10095000828104E082894DF6FF731A4082817047DC
:1009600002460020B1F5007F00D100BF13880B4084
:100970000BB1012000E00020704700002DE9F04796
:1009800086B005460E460024A24600BFA1460027B9
:10099000B08900B100BF2F462C8A4CF6FF7004408E
:1009A000F08804432C82AC894EF6F3100440B088E2
:1009B00031890843718908430443AC81AC8A4FF6FE
:1009C000FF400440B0890443AC8201A8FFF752FE07
:1009D0001F48874202D1DDF810A001E0DDF80CA02D
:1009E000A88900F4004040B10AEBCA0000EB0A10ED
:1009F00031684900B0FBF1F807E00AEBCA0000EBF0
:100A00000A1031688900B0FBF1F86420B8FBF0F0FF
:100A100004012009642101FB1089A88900F4004029
:100A200040B1322000EBC900B0FBF1F000F007004C
:100A3000044308E0322000EB09106421B0FBF1F020
:100A400000F00F0004432C8106B0BDE8F0870000E1
:100A50000038014010B586B00446012144F205007B
:100A6000FFF7F8FD4FF40070ADF8140003208DF887
:100A7000160018208DF8170005A91348FFF722FC6F
:100A80004FF48060ADF8140004208DF8170005A91C
:100A90000D48FFF717FC01940020ADF810000C2062
:100AA000ADF80E000020ADF80C00ADF80A00ADF86E
:100AB000080001A90548FFF761FF01210348FFF77E
:100AC00043FF06B010BD000000080140003801409F
:100AD000C1F308028280704700BFFEE770B505468B
:100AE0000C46FFF749FDA020FFF7F6FCFFF784FD59
:100AF00000B111E02846FFF7EFFCFFF77DFD00B1E4
:100B00000AE02046FFF7E8FCFFF776FD00B103E0BE
:100B1000FFF754FD002070BD02A000F011F8FF2087
:100B2000F9E700005772697465427974655F415452
:100B30003234435858206572726F722121210A00A5
:100B40000FB4054B10B503A9044A029800F018F839
:100B500010BC5DF814FB0000410E000818000020D6
:100B600002E008C8121F08C1002AFAD17047704776
:100B7000002001E001C1121F002AFBD170470000D4
:100B80002DE9FF4F8DB09B460F460446002606E038
:100B900025280BD05A460F999047641C761C207864
:100BA0000028F5D111B03046BDE8F08F0025A846E9
:100BB0000122984900E0054314F8013F203B02FA66
:100BC00003F00842F7D120782E2817D114F8010F2E
:100BD00045F004052A280ED06FF02F022078A0F1EE
:100BE000300109290AD808EB880102EB410100EB2A
:100BF0000108641CF2E757F8048B641C20786C2809
:100C00000DD004DC4C2812D06A2811D104E07428DD
:100C10000DD07A280CD10AE045F4001507E0617880
:100C200045F48015814202D1641C05F58015641CD1
:100C30002278692A45D008DC002AB3D0582A69D026
:100C4000632A10D0642A08D13BE0702A67D0732A47
:100C500013D0752A5CD0782A5CD010465A460F997A
:100C60009047761CD3E017F8040B8DF800000020A5
:100C70008DF80100E946012003E057F8049B4FF08E
:100C8000FF3069074FF0000501D40AE06D1C4545AF
:100C90000DDA8542FADB19F805100029F6D106E0D5
:100CA0006D1C8542FCDB19F805100029F8D12E4493
:100CB00004E019F8010B5A460F9990476D1EF8D2BF
:100CC000A5E00A200021CDE90801C5F30250022861
:100CD0000DD001CFC117031E71F100030DDA4FF0E3
:100CE000000CD0EB0C006CEB01012D2308E0FF1D84
:100CF00027F00707F7E80201EDE72B0504D52B23C2
:100D00008DF8283001233BE0EB0739D02023F7E7AB
:100D10000A2000E010200021CDE9080107E01020A2
:100D2000002145F00405CDE908014FF00808C5F39E
:100D3000025002280FD001CF00214FF0000A2B07EC
:100D40001FD5702A0DD0DDE908C38CF0100C5CEAC9
:100D5000030C0CD015E0FF1D27F00707F7E8020190
:100D6000EBE740228DF828204FF0010A0BE050EA13
:100D7000010306D030238DF828308DF82920022376
:100D80009A46582A04D024A20DF120090B9209E0BA
:100D900026A2F9E7DDE90823FFF7E6F90B9B9B5C48
:100DA00009F8013D50EA0102F4D1ADEB0900203011
:100DB0000890680701D44FF001080899884502DDC2
:100DC000A8EB010000E000208046002506E00AA80C
:100DD0005A46405D0F9990476D1C761C5545F6DBD1
:100DE00004E030205A460F999047761CB8F1000174
:100DF000A8F10108F5DC05E019F8010B5A460F9936
:100E00009047761C0899481E08900029F4DC641C61
:100E1000C5E6000009280100303132333435363759
:100E20003839616263646566000000003031323336
:100E300034353637383941424344454600000000D6
:100E400070B504460D46A1B20548FFF741FE00BF4C
:100E500080210348FFF784FD0128F9D1002070BDEF
:100E6000003801404820FFF71DFD4FF41650FFF7F2
:100E7000F1FDFFF7C1FA55212120FFF72FFE4FF4B6
:100E8000FA70FFF7D7F92120FFF75EFC04462146F0
:100E900002A0FFF755FE00BFFEE700005265616447
:100EA000427974655F41543234435858203A2030B7
:100EB0007825780A0000000008B501210820FFF716
:100EC000C9FB04208DF803004002ADF8000069461C
:100ED0000148FFF7F7F908BD000C014008B50121F2
:100EE0000820FFF7B7FB14208DF803004FF40060D3
:100EF000ADF8000003208DF8020069460148FFF7B5
:100F0000E1F908BD000C0140280F00080000002096
:100F10001C000000600B0008440F00081C000020AB
:100F200004040000700B000800000000010203042C
:100F30000102030406070809020406080000000075
:040F400000000000AD
:0400000508000131BD
:00000001FF
