:020000040800F2
:10000000200400204501000889030008810300083E
:1000100085030008B9010008D50A000800000000A7
:10002000000000000000000000000000B70700080A
:10003000BD010008000000008B030008E108000873
:100040005F0100085F0100085F0100085F01000810
:100050005F0100085F0100085F0100085F01000800
:100060005F0100085F0100085F0100085F010008F0
:100070005F0100085F0100085F0100085F010008E0
:100080005F0100085F0100085F0100085F010008D0
:100090005F0100085F0100085F0100085F010008C0
:1000A0005F0100085F0100085F0100085F010008B0
:1000B0005F0100085F0100085F0100085F010008A0
:1000C0005F0100085F0100085F0100085F01000890
:1000D0005F0100085F0100085F0100085F01000880
:1000E0005F0100085F0100085F0100085F01000870
:1000F0005F0100085F0100085F0100085F01000860
:100100005F0100085F0100085F0100085F0100084F
:100110005F0100085F0100085F0100085F0100083F
:100120005F0100085F0100085F0100085F0100082F
:10013000DFF80CD000F02EF800480047910C0008C2
:10014000200400200648804706480047FEE7FEE7F7
:10015000FEE7FEE7FEE7FEE7FEE7FEE7FEE7FEE777
:10016000E50800083101000830B50B4601460020C3
:100170002022012409E021FA02F59D4205D303FA69
:1001800002F5491B04FA02F52844151EA2F10102EA
:10019000F1DC30BD064C074D06E0E06840F001039D
:1001A00094E8070098471034AC42F6D3FFF7C4FF39
:1001B0003C0D00085C0D000800BFFEE77047000022
:1001C0000146104A12884A434FF0E0235A61002248
:1001D0009A611A46126942F001021A6100BF4FF09B
:1001E000E022106900F001021AB100F48032002A06
:1001F000F5D04FF0E022126900224FF0E0231A619F
:100200009A617047160000200146104A12884A433E
:100210004FF0E0235A6100229A611A46126942F0B7
:1002200001021A6100BF4FF0E022106900F00102E4
:100230001AB100F48032002AF5D04FF0E0221269A2
:1002400000224FF0E0231A619A61704714000020E9
:100250002DE9F0410246002500260020002300245D
:10026000002791F803C00CF00F0591F803C00CF0C3
:10027000100CBCF1000F03D091F802C04CEA050548
:1002800091F800C0BCF1000F31D0146800202BE0C1
:100290004FF0010C0CFA00F3B1F800C00CEA0306B1
:1002A0009E4220D183004FF00F0C0CFA03F7BC43A1
:1002B00005FA03FC4CEA040491F803C0BCF1280FD2
:1002C00006D14FF0010C0CFA00FCC2F814C00AE091
:1002D00091F803C0BCF1480F05D14FF0010C0CFAA6
:1002E00000FCC2F810C0401C0828D1D31460B1F83B
:1002F00000C0BCF1FF0F34DD546800202EE000F197
:10030000080C4FF0010808FA0CF3B1F800C00CEA31
:1003100003069E4221D183004FF00F0C0CFA03F725
:10032000BC4305FA03FC4CEA040491F803C0BCF199
:10033000280F05D100F1080C08FA0CF8C2F8148057
:1003400091F803C0BCF1480F07D100F1080C4FF041
:10035000010808FA0CF8C2F81080401C0828CED317
:100360005460BDE8F0810246002093680B400BB159
:10037000012000E000207047416170470161704733
:1003800000BFFEE700BFFEE77047704729B1064A8D
:1003900092690243044B9A6104E0034A92698243E2
:1003A000014B9A61704700000010024030B50021F7
:1003B0000022002400232D4D6D6805F00C0121B1B1
:1003C000042905D0082923D105E0294D056022E044
:1003D000274D05601FE0254D6D6805F47012234D13
:1003E0006D6805F48034022505EB92421CB9214D5D
:1003F000554305600BE01D4D6D6805F400351DB1DA
:100400001C4D5543056002E0194D5543056002E05F
:10041000174D056000BF00BF144D6D6805F0F00179
:100420000909154D6B5C0568DD4045600F4D6D6831
:1004300005F4E061090A104D6B5C4568DD4085609C
:100440000A4D6D6805F46051C90A0B4D6B5C456837
:10045000DD40C560054D6D6805F44041890B074DD1
:100460006B5CC568B5FBF3F5056130BD001002405B
:1004700000127A0000093D0000000020100000205A
:1004800008B54FF48050ADF8000001208DF802004F
:1004900004208DF8030069460148FFF7D9FE08BD26
:1004A0000008014008B54FF48050ADF8000010205E
:1004B0008DF8030003208DF8020069460148FFF71C
:1004C000C7FE08BD0008014008B501210420FFF760
:1004D0005DFF4FF40060ADF8000010208DF80300C0
:1004E00003208DF8020069460548FFF7B1FE4FF47E
:1004F0008050ADF8000069460148FFF7A9FE08BD2D
:100500000008014010B54FF400610D48FFF734FFBB
:10051000FFF7C8FF4FF480510948FFF72DFF042073
:10052000FFF772FE4FF400610548FFF727FF042034
:10053000FFF76AFE4FF400610148FFF71DFF10BD91
:100540000008014010B54FF400610C48FFF714FF9C
:10055000FFF7A8FF4FF480510848FFF70FFF4FF453
:1005600000610648FFF70AFF0420FFF74DFE4FF435
:1005700000610248FFF700FF10BD000000080140C5
:1005800070B5054600244FF400611748FFF7F4FEEC
:10059000FFF776FF00261BE04FF400611248FFF7DB
:1005A000EDFE0420FFF730FE6006040E4FF480518C
:1005B0000D48FFF7D8FE08B144F001044FF4006184
:1005C0000948FFF7D9FE0420FFF71EFE701CC6B2D3
:1005D000082EE1DB012D02D1FFF794FF01E0FFF7C8
:1005E000B1FF204670BD00000008014070B5044610
:1005F0004FF400611548FFF7BFFEFFF753FF0025DA
:1006000021E004F0800028B14FF480510F48FFF73B
:10061000B5FE04E04FF480510C48FFF7ADFE6006D4
:10062000040E4FF400610948FFF7A8FE0420FFF70D
:10063000EBFD4FF400610548FFF79EFE0420FFF735
:10064000E3FD681CC5B2082DDBDB70BD000801406E
:1006500010B54FF400610E48FFF78EFEFFF722FF42
:100660004FF480510A48FFF789FE4FF400610848B3
:10067000FFF784FE0420FFF7C7FD4FF480510448C4
:10068000FFF77AFE4FF400610148FFF775FE10BDD9
:100690000008014010B54FF400610C48FFF76CFEF4
:1006A000FFF700FF4FF480510848FFF765FE4FF455
:1006B00000610648FFF762FE0420FFF7A5FD4FF436
:1006C00080510248FFF75AFE10BD000000080140AB
:1006D00010B500244FF400611148FFF74DFEFFF7FD
:1006E000CFFE4FF400610E48FFF748FE0420FFF7ED
:1006F0008BFD07E0601CC4B2322C03DDFFF7CAFF9C
:10070000012010BD4FF480510548FFF72CFE002852
:10071000F0D14FF400610248FFF72EFE0020F0E711
:100720000008014010B5FFF7CFFE0321202000F0A4
:1007300028F810BD70B5FFF78BFFB120FFF756FF0B
:10074000FFF7C6FF0120FFF71BFF0446240201202C
:10075000FFF716FF04440120FFF712FFC5B2240281
:100760000120FFF70DFF044424020020FFF708FFDB
:1007700004440120FFF704FFC5B2FFF78BFF2046BA
:1007800070BD70B505460C46FFF762FFB020FFF75D
:100790002DFFFFF79DFF2846FFF728FFFFF798FF83
:1007A0002046FFF723FFFFF793FFFFF773FF642057
:1007B000FFF706FD70BD704710B500F001F810BDE1
:1007C0000CB50020019000903348006840F4803060
:1007D0003149086000BF3048006800F400300090E4
:1007E0000198401C0190009818B90198B0F5A06FCD
:1007F000F1D12948006800F4003010B101200090C8
:1008000001E0002000900098012843D123480068AF
:1008100040F01000214908600846006820F00300FD
:1008200008600846006840F0020008601A48406806
:10083000194948600846406848600846406840F4E6
:10084000806048600846406820F47C104860084694
:10085000406840F4E81048600846006840F0807046
:10086000086000BF0C48006800F000700028F9D054
:100870000948406820F0030007494860084640687E
:1008800040F00200486000BF0348406800F00C00E0
:100890000828F9D10CBD00000010024000200240E1
:1008A0004FF0E021096921F004014FF0E0221161CD
:1008B000C21700EB5272C2F3CF02074B1A801946DF
:1008C000098801EB4102C2EBC1114FF6FF7202EA47
:1008D000C101024A11807047140000201600002058
:1008E0007047000010B51348006840F0010011493E
:1008F000086008464068104908400E4948600846AC
:1009000000680E4908400B4908600846006820F45A
:10091000802008600846406820F4FE0048604FF4DC
:100920001F008860FFF748FF4FF00060044908602F
:1009300010BD0000001002400000FFF8FFFFF6FEAF
:1009400008ED00E021B1828942F40052828104E086
:1009500082894DF6FF731A4082817047024600205B
:10096000B1F5007F00D100BF13880B400BB101200F
:1009700000E00020704700002DE9F04786B00546F2
:100980000E460024A24600BFA1460027B08900B150
:1009900000BF2F462C8A4CF6FF700440F0880443B9
:1009A0002C82AC894EF6F3100440B088318908439C
:1009B000718908430443AC81AC8A4FF6FF40044080
:1009C000B0890443AC8201A8FFF7F0FC1F488742BE
:1009D00002D1DDF810A001E0DDF80CA0A88900F438
:1009E000004040B10AEBCA0000EB0A103168490030
:1009F000B0FBF1F807E00AEBCA0000EB0A1031681F
:100A00008900B0FBF1F86420B8FBF0F00401200984
:100A1000642101FB1089A88900F4004040B1322014
:100A200000EBC900B0FBF1F000F00700044308E060
:100A3000322000EB09106421B0FBF1F000F00F0050
:100A400004432C8106B0BDE8F08700000038014067
:100A500010B586B00446012144F20500FFF796FC6C
:100A60004FF40070ADF8140003208DF81600182024
:100A70008DF8170005A91348FFF7EAFB4FF48060D3
:100A8000ADF8140004208DF8170005A90D48FFF7F4
:100A9000DFFB01940020ADF810000C20ADF80E0033
:100AA0000020ADF80C00ADF80A00ADF8080001A96F
:100AB0000548FFF761FF01210348FFF743FF06B038
:100AC00010BD00000008014000380140C1F30802D9
:100AD0008280704700BFFEE70FB4054B10B503A935
:100AE000044A029800F018F810BC5DF814FB0000EE
:100AF0006D0C00081800002002E008C8121F08C191
:100B0000002AFAD170477047002001E001C1121F8E
:100B1000002AFBD1704700002DE9FF4F89B09B46AA
:100B20000446002506E025280BD05A460B9990472D
:100B3000641C6D1C20780028F5D10DB02846BDE856
:100B4000F08F0027B8460122474900E0074314F818
:100B5000013F203B02FA03F00842F7D120782E280B
:100B600019D114F8010F47F004072A280ED06FF0AE
:100B70002F022078A0F1300109290CD808EB880158
:100B800002EB410100EB0108641CF2E70A98641CC7
:100B900050F8048B0A9020780028CED0642808D022
:100BA000692806D075281ED05A460B9990476D1CAF
:100BB00058E00A994FF00A0901C90A91002802DA9F
:100BC00040422D2102E0390504D52B218DF820105B
:100BD000012103E0F90704D02021F7E78A4608AE97
:100BE0000DE00021FAE70A994FF00A0901C90A91BC
:100BF000F7E74946FFF7B8FA303106F8011D00283B
:100C0000F7D1ADEB060000F12009780701D44FF0D1
:100C10000108C84502DDA8EB090000E0002080467D
:100C2000002706E008A85A46C05D0B9990476D1C46
:100C30007F1C5745F6DB04E030205A460B9990475D
:100C40006D1CB8F10001A8F10108F5DC05E016F80B
:100C5000010B5A460B9990476D1CB9F10001A9F19F
:100C60000109F4DC641C65E70928010070B504463D
:100C70000D46A1B20548FFF729FF00BF80210348B8
:100C8000FFF76CFE0128F9D1002070BD003801404B
:100C90004820FFF705FE4FF41650FFF7D9FEFFF787
:100CA00041FD6420FFF78CFA08212020FFF769FD41
:100CB000FFF740FD0446250CA6B20FE008212020D6
:100CC000FFF75FFDFFF736FD0446250CA6B210A026
:100CD000FFF702FF4FF4FA70FFF772FAB5F5C87F1D
:100CE00001D1002EEAD011E008212020FFF749FDB4
:100CF000FFF720FD0446250CA6B2324629460AA07D
:100D0000FFF7EAFE4FF47A70FFF75AFAECE70000BB
:100D100049742773206265696E6720746573746512
:100D2000642E2E2E2E2E2E00434F323A25640D0AAD
:100D300054564F433A25640D0A0000005C0D00082C
:100D4000000000201C000000F80A0008780D0008D0
:100D50001C00002004040000080B00080000000034
:100D6000010203040102030406070809020406083D
:080D700000000000000000007B
:0400000508000131BD
:00000001FF
