:020000040800F2
:10000000B89F0020DD010008BD1800084D1600084B
:10001000B9180008950D0008CF2B0008000000005B
:100020000000000000000000000000004501000882
:100030004D1000080000000089010008D5230008C9
:10004000F7010008F7010008F7010008F7010008B0
:10005000F7010008F7010008F7010008F7010008A0
:10006000F7010008F7010008F7010008F701000890
:10007000F7010008F7010008F7010008F701000880
:10008000F7010008F7010008F7010008F701000870
:10009000F7010008F7010008F701000851100008F7
:1000A000F7010008F7010008F7010008F701000850
:1000B000F70100083D240008F7010008F7010008D7
:1000C000F7010008F7010008F7010008F701000830
:1000D000F7010008F70100083D2900084D29000834
:1000E000F7010008F7010008F7010008F701000810
:1000F000F7010008F7010008F7010008F701000800
:10010000F7010008F7010008F7010008F7010008EF
:10011000F7010008F70100084524000865240008DD
:10012000F7010008F7010008F7010008F7010008CF
:10013000DFF80CD000F0C4FB004800473D50000839
:10014000B89F0020224B19680868B0E8F00F80F3D0
:100150000988BFF36F8F4FF0000080F311884EF0D5
:100160000D0E70470000000006480068006880F32C
:10017000088862B661B6BFF34F8FBFF36F8F00DFA1
:1001800000BF00BF08ED00E0EFF30980BFF36F8F01
:100190000F4B1A6820E9F00F106008B54FF05000BF
:1001A00080F31188BFF34F8FBFF36F8F06F0BAFC57
:1001B0004FF0000080F31188BDE808401968086816
:1001C000B0E8F00F80F30988BFF36F8F704700BF6E
:1001D000B8050020EFF3058070470000064880470F
:1001E00006480047FEE7FEE7FEE7FEE7FEE7FEE71C
:1001F000FEE7FEE7FEE7FEE7DD2300083101000829
:1002000040EA01039B0703D009E008C9121F08C098
:10021000042AFAD203E011F8013B00F8013B521E18
:10022000F9D27047D2B201E000F8012B491EFBD28F
:1002300070470022F6E710B513460A4604461946F1
:10024000FFF7F0FF204610BD80EA010210B502F072
:100250000043400022D04A001FD0010E01EB126182
:10026000C0F35600C2F3560240F4000042F400020C
:10027000A0FB022000047F39140400D0401C50EA87
:10028000124001D44000491EC2B20C0604EBD0104B
:10029000401C4008802A02D003E0002010BD20F05E
:1002A0000100002900DA0020184310BD2DE9FE4F9F
:1002B00081EA030404F0004421F0004100944FF06F
:1002C000000B23F0004350EA01045ED052EA03041D
:1002D0005BD0C3F30A54C1F30A552C44A4F2F3349F
:1002E0000194A0FB0254C1F3130141F48011C3F344
:1002F000130343F4801301FB024400FB034E840A02
:10030000970A44EA815447EA8357A4FB0768029599
:100310008D0A05FB07854FEA932C04FB0C54270537
:10032000029D4FEA065847EA1637B5EB08056EEB13
:10033000070C870E920E47EA811742EA8312A7FB49
:100340000201B6EB0B0164EB00042B0D43EA0C3306
:100350005E1844EB1C50DA465146E7FB0201C5F338
:1003600013044FEA0B3343EA14534FEA0432019C5F
:1003700043EA0603A4F10C040294009CCDE900B406
:1003800000F079F903B0BDE8F08F00200146F9E7ED
:100390002DE9F04D81EA030404F0004B21F0004503
:1003A00014464FF0000A23F0004150EA050220D025
:1003B00054EA01021DD0C5F30A570246C5F31303E0
:1003C000C1F31300C1F30A5640F4801543F48013BF
:1003D000A7EB0608101BD64608F2FD3873EB0500A4
:1003E00002D308F1010801E092185B41B8F1000F57
:1003F00003DA00200146BDE8F08D00204FF48011A3
:10040000064684460EE0171B73EB050705D3121B47
:1004100063EB050306434CEA010C49084FEA300040
:1004200092185B4150EA0107EDD152EA030012D065
:1004300082EA040083EA0501084305D0101BAB41A2
:1004400006D20122002306E000224FF0004302E022
:100450006FF0010253101AEB06004CEB085110EB41
:100460000A0041EB0B01BDE8F04D00F0F5B80EB508
:10047000C10F80EAE0700844CA07002140F233430C
:100480008DE80E000A460B4600F0F5F803B000BDFB
:1004900000F0004220F00040C10DC0F3160040F40F
:1004A00000007F2901DA00207047962903DCC1F1A2
:1004B0009601C84001E096398840002AF4D04042B5
:1004C000704720F00040C10DC0F3160040F400005A
:1004D0007F2901DA00207047962903DCC1F19601DB
:1004E000C840704796398840704700F0004230F0AD
:1004F00000400AD0C10D01F56071C0F3160042EA58
:100500000151C2084007114370470020014670475F
:1005100001F0004330B421F0004150EA010206D05E
:100520000A0DA2F56072C1F31301002A02DC30BC8F
:1005300000207047440F44EAC104C100E01830BCF9
:1005400000EBC25000F051B8002801DBC0F10040C0
:10055000002901DBC1F100418142704730B50B46F3
:10056000014600202022012409E021FA02F59D42E3
:1005700005D303FA02F5491B04FA02F52844151EB7
:10058000A2F10102F1DC30BD2DE9F05F054600204B
:1005900092469B4688460646814640241BE02846F4
:1005A00041464746224600F0ACF953465A46C01A27
:1005B000914110D311461846224600F093F92D1AA6
:1005C00067EB01084F4622460120002100F08AF91E
:1005D00017EB00094E41201EA4F10104DFDC484660
:1005E00031462A464346BDE8F09F0029A8BF704720
:1005F000401C490008BF20F00100704710B4B0FA59
:1006000080FC00FA0CF050EA010404BF10BC7047F3
:1006100049B1CCF1200421FA04F411FA0CF118BF0D
:10062000012121430843A3EB0C01CB1D4FEA0061DC
:100630004FEA102042BF002010BC704700EBC350AF
:1006400010440029A4BF10BC7047401C490008BFDB
:1006500020F0010010BC704710B5141E73F10004A7
:1006600008DA401C41F1000192185B411A4301D1A4
:1006700020F0010010BD2DE9F04D92469B4611B1CE
:10068000B1FA81F202E0B0FA80F22032904600F036
:1006900029F904460F4640EA0A0041EA0B01534695
:1006A0005A46084313D0114653EA010019D0C8F145
:1006B0004002504600F025F905460E465046594680
:1006C000424600F00FF9084305D0012004E020461F
:1006D0003946BDE8F08D0020054346EAE0762C431C
:1006E00037430A986305E40AA0EB08000022FD0ADC
:1006F00044EA47540A3002D500200146E9E70105E3
:1007000010196941DDE9084500196941BDE8F04D5E
:10071000A2E72DE9FE4F804681EA0300C00F0C4698
:10072000009021F0004123F00045B8EB0200A94100
:1007300005D24046214690461C460B46024623F011
:100740000040104347D0270DC7F30A00C3F30A51F6
:100750000290401A019040286BDAC3F3130040F472
:10076000801B0098924620B10023D2EB030A63EB72
:100770000B0B01985946C0F14002504600F0B2F808
:1007800006460D4650465946019A00F0CAF810EB4D
:1007900008006141002487EA115284EAE7731A4392
:1007A00040D0009A62B3019A012A4FEA075215DC41
:1007B000001B61EB02014FF0004202EA0752CDE953
:1007C0000042001C41F5801132462B46FFF753FFD3
:1007D00003B0BDE8F08F40462146F9E7001B61EB0E
:1007E0000201001C41F5801300185B412018A2F59E
:1007F000001747EB030140EAD570B6196D4111E0CF
:100800006D084FEA360645EAC0754FEA0752001BED
:1008100061EB0201001C41F5801149084FEA3000EC
:100820000019514132462B4603B0BDE8F04FFFF7A7
:1008300013BF0098012240000023D0EB020263EBBB
:10084000E073009821464FEAE074B8EB000061EBDA
:100850000401E9E783F000435BE781F0004158E7DA
:10086000C1F30A52C1F3130140F2FF3341F4801186
:100870009A4202DA00200146704740F233439A421E
:10088000A2F2334202DC524200F03BB800F02AB838
:1008900030B5041E71F1000404DB4FF00044404207
:1008A00064EB0101141E73F1000405DB1C464FF0DC
:1008B0000043524263EB0403994208BF904230BDAB
:1008C000064C074D06E0E06840F0010394E807009D
:1008D00098471034AC42F6D3FFF72EFCF4810008A1
:1008E00014820008202A04DB203A00FA02F10020DA
:1008F00070479140C2F1200320FA03F3194390405E
:100900007047202A04DB203A21FA02F000217047C8
:1009100021FA02F3D040C2F1200291400843194667
:100920007047202A06DBCB17203A41FA02F043EA4F
:10093000E07306E041FA02F3D040C2F12002914098
:1009400008431946704770B58D1810F8014B14F024
:10095000030201D110F8012B231106D110F8013B3D
:1009600003E010F8016B01F8016B521EF9D1ABB135
:1009700010F8012B04F00C048A1A0C2C03D0A2EB03
:1009800084129B1C08E010F8014BA2EB0422F8E74C
:1009900012F8014B01F8014B5B1EF9D5A942D4D3E3
:1009A000002070BD00B587B0012140F2112001F098
:1009B000A9FB00208DF81B000320ADF818008DF86E
:1009C0001A0006A9204800F039FD4FF4004001F05C
:1009D0005DFB0020019001208DF808008DF80900D2
:1009E0004FF4602003900020049002208DF8140042
:1009F00001A9164800F056F8072301220A211348DE
:100A000000F078F8072302220B21104800F072F85A
:100A100001210E4800F01CF80C4800F0C7F800BF98
:100A20000A4800F035F80128FAD0084800F0CEF85E
:100A300000BF064800F022F80128FAD0012103483F
:100A400000F0B9F807B000BD0010014000240140DB
:100A500021B1826842F00102826003E0826822F0E4
:100A600001028260704721B1826842F48072826024
:100A700003E0826822F480728260704701460020A1
:100A80008A6802F004020AB1012000E000207047E9
:100A9000014600208A6802F008020AB1012000E045
:100AA0000020704730B502460020002350680F4CEC
:100AB00020400D790C6844EA05242043506090687A
:100AC0000B4C2040D1E902542C434D7944EA4504B3
:100AD00020439060D06A20F470000C7C641EE4B265
:100AE000234340EA0350D06230BD0000FFFEF0FF18
:100AF000FDF7F1FFF0B504460D4600200021092D59
:100B000011DDE068A5F10A0606EB4607072606FA9E
:100B100007F18843A5F10A0606EB460603FA06F13B
:100B20000843E0600CE0206905EB4507072606FA5C
:100B300007F1884305EB450603FA06F108432061F7
:100B4000072A0FDA606B561E06EB86071F2606FA89
:100B500007F18843561E06EB860605FA06F10843A0
:100B6000606322E00D2A0FDA206BD61F06EB8607A2
:100B70001F2606FA07F18843D61F06EB860605FAFC
:100B800006F10843206310E0E06AA2F10D0606EBCF
:100B900086071F2606FA07F18843A2F10D0606EB29
:100BA000860605FA06F10843E062F0BD816841F06F
:100BB00008018160704721B1826842F4A00282601E
:100BC00003E0826822F4A00282607047816841F0ED
:100BD00004018160704700001CB5012405F0B8FADB
:100BE000012006F05FF8244908600846006810B14B
:100BF00022A001F0EFFF00231A4619461E480068A4
:100C000006F0DEF904462548042100238A01CDE9D7
:100C1000001023A1264806F093FB0446012C02D1C4
:100C200024A001F0D7FF2B48032100234FF480724A
:100C3000CDE9001028A12B4806F082FB0446012CC8
:100C400002D129A001F0C6FF2E48022100238022F4
:100C5000CDE900102CA1304806F072FB0446012CAF
:100C600002D12EA001F0B6FF3348006805F0DCFC8D
:100C700005F0B0FA1CBD0000100000204D7578533F
:100C8000656D5F48616E646C65BBA5B3E2C1BFB4BE
:100C9000B4BDA8B3C9B9A6210D0A00000400002004
:100CA00047455456414C55455F5461736B000000F5
:100CB0007911000847455456414C55455F546173BE
:100CC0006B20C8CECEF1B4B4BDA8B3C9B9A60D0A85
:100CD00000000000080000204F4C45445F54617341
:100CE0006B0000007D1D00084F4C45445F5461734C
:100CF0006B20C8CECEF1B4B4BDA8B3C9B9A60D0A55
:100D0000000000000C00002047495A574954535F27
:100D10005461736B000000004513000847495A579F
:100D20004954535F5461736B20C8CECEF1B4B4BD47
:100D3000A8B3C9B9A60D0A000000002010B54FF4F1
:100D4000A06000F05FFE01F0B5FD01F023FC00F0B3
:100D5000EFFD00F021FE01F045F9FFF723FE00F062
:100D600043F900F047F800F077FE00F055FE01F07F
:100D700053FA00F05BFC022004F01CF801A001F023
:100D800029FF10BDB3F5CABCBBAFCDEAB3C9A3A15F
:100D90000A00000000BFFEE710B5002400F056F87E
:100DA00004E0601CC4B2012002F099FB4FF4807192
:100DB0000F4800F017FC08B1642CF2DB642C01DB57
:100DC000002010BD002404E0601CC4B2012002F029
:100DD00086FB4FF48071064800F004FC08B9642CCF
:100DE000F2DB642C01DB0020EBE70120E9E70000E7
:100DF0000008014008B50121042001F083F910200A
:100E00008DF803000001ADF8000003208DF802000A
:100E100069460D4800F012FB04208DF80300012004
:100E2000ADF8000003208DF802006946064800F086
:100E300005FB0121044800F0E0FB4FF480710248FB
:100E400000F0DBFB08BD00000008014008B50420ED
:100E50008DF803008001ADF8000003208DF802003A
:100E60006946024800F0EAFA08BD000000080140A7
:100E700008B510208DF803000001ADF80000032034
:100E80008DF802006946024800F0D8FA08BD00005B
:100E90000008014010B5002404E0601CC4B2012029
:100EA00002F01DFB4FF48071104800F09BFB08B16D
:100EB000642CF2DB002404E0601CC4B2012002F0C8
:100EC0000EFB4FF48071094800F08CFB08B9642CCC
:100ED000F2DB3C2002F003FB4FF48071034800F08A
:100EE00081FB08B1012010BD0020FCE70008014093
:100EF00070B50024002506E06006040EFFF7CAFF67
:100F00000443681CC5B2082DF6DB204670BD7CB5D5
:100F100005460E4600F028F8FFF73EFF01281FD1D6
:100F2000002405E0FFF7E4FF0DF80400601CC4B2E4
:100F3000052CF7DB9DF800009DF8011008449DF892
:100F4000021008449DF8031008449DF804108842DC
:100F500008D19DF8000030709DF80200287001E073
:100F600000207CBD0120FCE710B5FFF781FF4FF4A6
:100F70008071074800F03FFB282002F0A4FA4FF4EC
:100F80008071034800F039FB282002F0A8FA10BD58
:100F90000008014021B1026842F00102026004E051
:100FA00002684FF6FE731A400260704710B50022C7
:100FB000026847F6F0739A430C6A8B6823430C6906
:100FC00023434C6923438C692343CC6923434C6AF4
:100FD00023438C6A23431A430260CB6843600B6847
:100FE00083604B68C36010BD00B58BB0012108461B
:100FF00001F058F83C200390002002900A9010481D
:1010000001904FF480600790802005902020089088
:101010000C48009080150690002004904FF440503A
:10102000099069460848FFF7C1FF01210648FFF70C
:10103000B1FF012103484C38FFF715FD0BB000BD8F
:10104000500600204C240140080002407047000078
:1010500010B54FF4007000F031F801280DD14102B5
:10106000114800F0BFFA18B90121104801F0D0FA78
:101070004FF4007000F01CF814E04FF4807000F0A2
:101080001DF801280ED10102074800F0ABFA28B97B
:101090000121064801F0BCFA00F0BEFC4FF480705C
:1010A00000F006F810BD00000010014000140040E0
:1010B0000149086070470000140401400146002007
:1010C0000022074B1B6803EA0102054B14331B681F
:1010D0000B4013B10AB1012000E00020704700006E
:1010E00000040140002123498279002A3AD00A46AF
:1010F000126803689A430B461A600A1D1268036857
:101100009A430B1D1A60027911440A6803681A4356
:101110000A60184A0832126803689A43154B08336C
:101120001A601A1D126803689A43124B0C331A6036
:101130004279102A0ED11A1F126803681A430D4B08
:1011400008331A601A1D126803681A43094B0C33DE
:101150001A600DE00749427911440A6803681A438E
:101160000A6005E0027911440A6803689A430A603C
:10117000704700000004014000BF92E04948006849
:10118000012803D14848006805F042FC00235A1E9C
:1011900019464648006805F0D3FD45480068012817
:1011A00074D144A001F016FD002000F029FA444952
:1011B0000860012000F024FA4FEA400A5046FFF789
:1011C00056F906464FF066323E4BFFF76FF804467D
:1011D00000223D4BFFF7DCF88046FFF799F93B49C9
:1011E00008603B493B48FFF792FE3B493B4801F012
:1011F0002EF8384801783AA001F0ECFC3448017828
:101200003AA001F0E7FC354801883BA001F0E2FC80
:10121000314801883CA001F0DDFC294801683EA06E
:1012200001F0D8FC29480068FFF75FF90446224620
:101230000B463CA001F0CEFC3E4924480068FFF775
:1012400003F80446FFF724F93B4908603B491F486F
:101250000068FEF7F9FF0446FFF71AF938490860FD
:10126000354800680A2190FBF1F201FB1200324977
:10127000086033480068642190FBF1F201FB120022
:101280002F4908604FF47A7002F01DF900231A46C6
:1012900019460648006805F093FE4FF47A7005F091
:1012A00087F96BE7240000200400002010000020D4
:1012B00020000020D3C5CFC8BCB6A3BA340A0000B2
:1012C0002C00002066660A4000FEAF40340000207B
:1012D00029000020280000203200002030000020DB
:1012E000CEC2B6C8A3BA256420200000CAAAB6C8D8
:1012F000A3BA256420200000434F32C5A8B6C8A376
:10130000BA2564202000000054564F43C5A8B6C833
:10131000A3BA256420200000D1CCCEEDA3BA256469
:1013200020200000B5E7D1B9A3BA252E32662020CF
:101330000A00000000002041180000200000C84200
:101340001C00002000BF38E01C480068012803D1C1
:101350001B48006805F05CFB00235A1E194619481B
:10136000006805F0EDFC1848006801281AD117A0A4
:1013700001F030FC1A4800781A4908601A480078D1
:1013800048601A480068886019480068C8601948B1
:101390000088086118480088486104F08DFE1148F3
:1013A00003F04AFB00231A4619460648006805F078
:1013B00007FE4FF47A7005F0FBF8C5E72400002023
:1013C0000C0000201000002020000020D3C5CFC852
:1013D000BCB6A3BA325F47495A574954530A000072
:1013E00028000020380600202900002034000020BA
:1013F0002C000020300000203200002030B50022F8
:101400008B071C0F0F2303FA04F20B4B8C1053F8BD
:1014100024309343084C8D1044F8253023468C101B
:1014200053F824308C07240F00FA04F42343024CB1
:101430008D1044F8253030BD080001402DE9F04101
:10144000024600250026002000230024002791F8F2
:1014500003C00CF00F0591F803C00CF0100CBCF1A8
:10146000000F03D091F802C04CEA050591F800C0C6
:10147000BCF1000F31D0146800202BE04FF0010CBC
:101480000CFA00F3B1F800C00CEA03069E4220D12A
:1014900083004FF00F0C0CFA03F7BC4305FA03FC72
:1014A0004CEA040491F803C0BCF1280F06D14FF0B8
:1014B000010C0CFA00FCC2F814C00AE091F803C059
:1014C000BCF1480F05D14FF0010C0CFA00FCC2F83A
:1014D00010C0401C0828D1D31460B1F800C0BCF182
:1014E000FF0F34DD546800202EE000F1080C4FF0AF
:1014F000010808FA0CF3B1F800C00CEA03069E429A
:1015000021D183004FF00F0C0CFA03F7BC4305FA0E
:1015100003FC4CEA040491F803C0BCF1280F05D188
:1015200000F1080C08FA0CF8C2F8148091F803C016
:10153000BCF1480F07D100F1080C4FF0010808FA80
:101540000CF8C2F81080401C0828CED35460BDE8C7
:10155000F0810000F0B50A46002300240021002598
:1015600000F00046B6F1004F02D11D4EF16901E0D6
:101570001B4E7168C0F3034583B200F44016B6F504
:10158000401F08D121F07061154E766826F0706614
:10159000134F7E6012E000F48016B6F5801F06D16E
:1015A000032606FA05F4A14341F0706106E0460DFA
:1015B000360103FA06F6B14341F0706122B1460DDF
:1015C000360103FA06F6314300F00046B6F1004F4B
:1015D00002D1034EF16101E0014E7160F0BD0000E7
:1015E000000001400246002093680B400BB101202F
:1015F00000E00020704741617047016170470000C2
:1016000002460021002300BF06E0074800EB8100EE
:1016100030F812000344491C1E29F6D31E20B3FBE8
:10162000F0F080B2704700005006002010B501F0C5
:1016300015F84FF4165001F0E7F818210248FEF7AC
:10164000F8FD03F085FB10BD3806002000BFFEE763
:1016500008B50121082000F055FD14208DF8030085
:10166000C020ADF8000003208DF802006946044850
:10167000FFF7E4FEC0210248FFF7BFFF08BD0000EE
:10168000000C014070B5054600F02AF80026002441
:1016900000BF18E040211148FFF7ADFF082001F01E
:1016A0001EFF40210D48FFF7A8FF6006040E8021B1
:1016B0000A48FFF797FF08B144F00104082001F041
:1016C0000EFF701CC6B2082EE4DB15B100F076F8F0
:1016D00001E000F029F8204670BD0000000C014038
:1016E00008B504208DF803008020ADF80000032029
:1016F0008DF8020069460248FFF7A0FE08BD000011
:10170000000C014008B514208DF803008020ADF8CE
:10171000000003208DF8020069460248FFF78EFEA4
:1017200008BD0000000C014010B540210B48FFF738
:1017300062FFFFF7E7FF80210848FFF75CFF082002
:1017400001F0CDFE40210548FFF757FF082001F0CA
:10175000C6FE40210148FFF74EFF10BD000C0140BE
:1017600070B50446FFF7CEFF002540211248FFF771
:1017700042FF00BF1DE004F0800020B180210E4830
:10178000FFF73BFF03E080210B48FFF734FF6006C3
:10179000040E082001F0A3FE40210748FFF72DFFAB
:1017A000082001F09CFE40210348FFF724FF681C3D
:1017B000C5B2082DDFDB70BD000C014010B5402123
:1017C0000B48FFF718FFFFF79DFF80210848FFF740
:1017D00014FF082001F083FE40210548FFF70DFFAC
:1017E000082001F07CFE40210148FFF704FF10BDF6
:1017F000000C014010B5FFF785FF80210A48FFF774
:10180000FCFE40210848FFF7F8FE082001F067FEC3
:1018100080210548FFF7EFFE082001F060FE40211F
:101820000148FFF7E8FE10BD000C014010B5FFF7BE
:1018300069FF40210A48FFF7DEFE80210848FFF7D4
:10184000DAFE082001F04BFE40210548FFF7D5FEE7
:1018500080210348FFF7D1FE082001F040FE10BDB3
:10186000000C014010B5FFF73BFF80211148FFF746
:10187000C4FE0A2001F033FE40210E48FFF7BDFEF2
:101880000A2001F02CFE002407E0601CC4B2FF2CEB
:1018900003DDFFF7CBFF012010BD80210548FFF7D6
:1018A000A1FE0028F1D140210248FFF7A4FE00204C
:1018B000F2E70000000C014000BFFEE770470000A7
:1018C00070B5002100230F22C47804B3154C24689E
:1018D00004F4E064C4F5E064210AC1F10403CA40E1
:1018E000447804FA03F184781440214309010E4C32
:1018F0000678A155047804F01F050124AC40057852
:101900006D11AD0005F1E025C5F8004109E004784E
:1019100004F01F050124AC40044D0678761145F80B
:10192000264070BD0CED00E000E400E080E100E046
:101930001FB50121102000F0E5FB48208DF80F00B5
:101940004FF40070ADF80C0003A91248FFF776FDC4
:1019500009210220FFF752FD17208DF80800012011
:101960008DF80B0000208DF809008DF80A0002A800
:10197000FFF7A6FF4FF40070009001208DF80600DD
:1019800000208DF804000C208DF805006846FFF754
:10199000A9FB1FBD001001401FB50121102000F060
:1019A000B1FB48208DF80F004FF48070ADF80C00AB
:1019B00003A91348FFF742FD08210220FFF71EFD8F
:1019C00017208DF8080001208DF80B0000208DF8FD
:1019D000090001208DF80A0002A8FFF771FF4FF4FB
:1019E0008070009001208DF8060000208DF8040022
:1019F0000C208DF805006846FFF774FB1FBD000042
:101A00000010014002490143024A11607047000082
:101A10000000FA050CED00E070B5002419E004F1B7
:101A2000B001C8B2002100F0ABFA0021084600F076
:101A3000A7FA0021102000F0A3FA002505E00121FB
:101A4000002000F09DFA681CC5B2802DF7DB601CF9
:101A5000C4B2082CE3DB70BD08B50121182000F0EA
:101A600051FB10208DF803000320ADF800008DF825
:101A7000020069464E48FFF7E1FC10208DF8030094
:101A80003020ADF8000003208DF802006946494877
:101A9000FFF7D4FC01214648FFF7AFFD642001F0B9
:101AA00012FD01214248FFF7A6FD642001F00BFD65
:101AB00001213F48FFF7A1FD0021AE2000F060FAB0
:101AC0000021084600F05CFA0021102000F058FACE
:101AD0000021402000F054FA0021812000F050FA4B
:101AE0000021CF2000F04CFA0021A12000F048FA9C
:101AF0000021C82000F044FA0021A62000F040FA9E
:101B00000021A82000F03CFA00213F2000F038FA24
:101B10000021D32000F034FA0021084600F030FA0A
:101B20000021D52000F02CFA0021802000F028FAB6
:101B30000021D92000F024FA0021F12000F020FA41
:101B40000021DA2000F01CFA0021122000F018FA1F
:101B50000021DB2000F014FA0021402000F010FAF0
:101B60000021202000F00CFA0021022000F008FAE9
:101B700000218D2000F004FA0021142000F000FA6A
:101B80000021A42000F0FCF90021A62000F0F8F9C3
:101B90000021AF2000F0F4F90021AF2000F0F0F9AF
:101BA000FFF73AFF0021084600F006F808BD0000E4
:101BB000000C01400010014070B504460D4605F1CF
:101BC000B001C8B2002100F0DBF9102141EA141085
:101BD000002100F0D5F904F00F0141F001000021CF
:101BE00000F0CEF970BD00002DE9F04180460E46B0
:101BF0001546002731464046FFF7DEFF00240AE085
:101C0000124A02EB8511085D012100F0B9F9781C38
:101C1000C7B2601CC4B2102CF2DB701CC1B24046CB
:101C2000FFF7CAFF00240CE06900491C074A02EBD9
:101C30004111085D012100F0A3F9781CC7B2601CB6
:101C4000C4B2102CF0DBBDE8F08100007800002069
:101C50002DE9F04107460E46904600250024A8F1E4
:101C60002000C5B27F2F02DD0027B01CC6B231466E
:101C70003846FFF7A1FF002408E004EB05110F4AE6
:101C8000505C012100F07CF9601CC4B2082CF4DB2C
:101C9000701CC1B23846FFF78FFF002409E004EB47
:101CA00005110831054A505C012100F069F9601CFA
:101CB000C4B2082CF3DBBDE8F0810000047C00080E
:101CC0002DE9FF5F074691461D460E9E4FF0000A24
:101CD000002433E0281B401EC1B20A2003F0ECF9B7
:101CE000B9FBF0F00A21B0FBF1F201FB1208BAF1E6
:101CF000000F13D1681EA04210DDB8F1000F0BD108
:101D0000B34606EBDB71491001FB0471C8B2202217
:101D10000199FFF79DFF0FE04FF0010AB34606EB74
:101D2000DB71491001FB0471C8B208F13001CAB27D
:101D30000199FFF78DFF00BF601CC4B2AC42C9DB44
:101D4000BDE8FF9F2DE9F04104460F4615460026E9
:101D50000EE0AA5D39462046FFF77AFF04F108003D
:101D6000C4B2782C02DD0024B81CC7B2701CC6B205
:101D7000A85D0028EDD1BDE8F081000086B000BF6D
:101D80006BA103C9CDE904016BA103C9CDE902012F
:101D9000CDE06B480068012803D16A48006804F070
:101DA00037FE00235A1E19466748006804F0C8FF32
:101DB0006648006801287DD165A000F00BFF2E2445
:101DC000FFF72AFE072200210846FFF70DFF082231
:101DD00000211220FFF708FF092200212420FFF72D
:101DE00003FF1020022300905D4802780021282084
:101DF000FFF766FF0A2200214820FFF7F5FE0B22BD
:101E000000215A20FFF7F0FE0C2200216C20FFF782
:101E1000EBFE10200223009052480278002170202F
:101E2000FFF74EFF122203210020FFF7DDFE1322F1
:101E300003211220FFF7D8FE142203212420FFF7EC
:101E4000D3FE49480068FEF73CFB054610200123FD
:101E50002A46032100902820FFF732FF2246032163
:101E60003420FFF7F5FE1020012300903F480321A6
:101E700002684020FFF724FF1020012300903C4817
:101E8000032102684C20FFF71BFF0D2206210020D2
:101E9000FFF7AAFE0E2206211220FFF7A5FE0F2251
:101EA00006212420FFF7A0FE102206213620FFF78E
:101EB0009BFE00E030E0112206214820FFF794FE4F
:101EC0001020042300902B48062102685020FFF7C1
:101ED000F7FE4FF47A7001F0F6FAFFF79DFD04AAC1
:101EE00000210846FFF72EFF10200423009022480F
:101EF000028800211E20FFF7E3FE02AA0321002032
:101F0000FFF720FF1020042300901C4802880321C3
:101F10002820FFF7D5FE00BF00231A4619460A48BD
:101F2000006805F04DF84FF47A7004F041FB30E79B
:101F3000434F323A0000000054564F433A0000002D
:101F400024000020080000201000002020000020B5
:101F5000D3C5CFC8BCB6A3BA335F4F4C45440A00C3
:101F60002800002029000020340000201800002054
:101F70001C0000202C000020300000203200002037
:101F800070B504460E4626B102211448FFF735FB12
:101F900003E002211148FFF72EFB002517E0102176
:101FA0000F48FFF728FB04F0800020B120210C48E7
:101FB000FFF723FB03E020210948FFF71CFB10215A
:101FC0000748FFF71AFB6006040E681CC5B2082D0F
:101FD000E5DB02210148FFF710FB70BD000C01405A
:101FE0000010014000B589B00121022000F06AF81C
:101FF0000121112000F086F818208DF823004020E0
:10200000ADF8200003208DF8220008A91C48FFF736
:1020100015FA01211B48FFF79DFA4FF43470ADF813
:102020001400FF20ADF818000020ADF81600ADF840
:102030001A0005A9144800F095FB0121124800F090
:10204000E1FA7020ADF804000120ADF8060002208E
:10205000ADF80C000020ADF80A0001A90A4800F014
:102060002BFB0821084800F073FB0121064800F013
:10207000BDFA0121044800F0CBFA09B000BD000010
:1020800000100140000C1A0000040040014600202E
:10209000034A506820F440400843506070470000F5
:1020A0000010024029B1064A52690243044B5A61AA
:1020B00004E0034A52698243014B5A6170470000B1
:1020C0000010024029B1064AD2690243044BDA618A
:1020D00004E0034AD2698243014BDA617047000091
:1020E0000010024029B1064A12690243044B1A61EA
:1020F00004E0034A12698243014B1A6170470000F1
:102100000010024029B1064A92690243044B9A61C9
:1021100004E0034A92698243014B9A6170470000D0
:102120000010024029B1064AD2680243044BDA602B
:1021300004E0034AD2688243014BDA607047000032
:102140000010024030B500210022002400232D4D54
:102150006D6805F00C0121B1042905D0082923D1AF
:1021600005E0294D056022E0274D05601FE0254D63
:102170006D6805F47012234D6D6805F480340225F6
:1021800005EB92421CB9214D554305600BE01D4DF6
:102190006D6805F400351DB11C4D5543056002E026
:1021A000194D5543056002E0174D056000BF00BFA3
:1021B000144D6D6805F0F0010909154D6B5C05685B
:1021C000DD4045600F4D6D6805F4E061090A104D72
:1021D0006B5C4568DD4085600A4D6D6805F46051B3
:1021E000C90A0B4D6B5C4568DD40C560054D6D68E7
:1021F00005F44041890B074D6B5CC568B5FBF3F5F1
:10220000056130BD0010024000127A0000093D0057
:10221000380000204800002010B5FFF719FAFFF73A
:10222000E9FAB020FFF79CFAFFF71CFB2020FFF72C
:1022300097FAFFF717FB0320FFF792FAFFF712FB5D
:10224000FFF7F4FA40F24C4001F03DF910BD70B5D3
:1022500004460D4600260821202000F02CF8FFF748
:10226000C9FAB120FFF77CFAFFF7FCFA0020FFF76C
:1022700009FA218841EA002020800020FFF702FAB5
:102280002188084320800020FFF7FCF90646002043
:10229000FFF7F8F9298841EA002028800020FFF79D
:1022A000F1F92988084328800120FFF7EBF9064659
:1022B000FFF7BCFA70BD70B505460C46FFF79AFAF9
:1022C000B020FFF74DFAFFF7CDFA2846FFF748FA9E
:1022D000FFF7C8FA2046FFF743FAFFF7C3FAFFF704
:1022E000A5FA40F24C4001F0EEF870BD10B500F0D8
:1022F00001F810BD0CB50020019000903348006833
:1023000040F480303149086000BF3048006800F474
:10231000003000900198401C0190009818B9019875
:10232000B0F5A06FF1D12948006800F4003010B179
:102330000120009001E0002000900098012843D186
:102340002348006840F010002149086008460068F2
:1023500020F0030008600846006840F002000860B2
:102360001A4840681949486008464068486008466D
:10237000406840F4806048600846406820F47C1063
:1023800048600846406840F4E81048600846006825
:1023900040F08070086000BF0C48006800F00070DA
:1023A0000028F9D00948406820F003000749486038
:1023B0000846406840F00200486000BF034840689B
:1023C00000F00C000828F9D10CBD000000100240FC
:1023D0000020024010B504F04BFC10BD10B51348AE
:1023E000006840F001001149086008464068104943
:1023F00008400E494860084600680E4908400B49ED
:1024000008600846006820F480200860084640689C
:1024100020F4FE0048604FF41F008860FFF766FF5D
:102420004FF000600449086010BD00000010024039
:102430000000FFF8FFFFF6FE08ED00E000B502F037
:1024400051FA00BD10B50121054800F0EDF828B1A2
:102450000121034800F0D9F802F044FA10BD000051
:102460000010004010B50121264800F0DDF80028DA
:1024700047D00121234800F0C8F84FF400712248EA
:10248000FFF7B0F8002825D100211E4800F0C0F861
:102490001EA000F09FFB4FF0FF301F490860012095
:1024A0001E4908601E48006805F0A0F910B91DA07B
:1024B00000F090FB2348006805F098F910B922A0BD
:1024C00000F088FB2748006805F090F910B926A0B5
:1024D00000F080FB4FF480710B48FFF783F860B980
:1024E0000021084800F094F827A000F073FB0020BA
:1024F0000A4908600120084908600021014800F0ED
:1025000087F810BD0014004000100140D4CBD0D09B
:10251000C4A3CABDA3A10A002400002020000020FB
:102520000400002047455456414C55455F546173A3
:102530006B20526573756D65206661696C656421F9
:102540000A000000080000204F4C45445F546173AE
:102550006B20526573756D65206661696C656421D9
:102560000A0000000C00002047495A574954535FA5
:102570005461736B20526573756D65206661696C7B
:102580006564210A00000000CDA3D6B9C4A3CABD6A
:10259000A3A10A001FB501212020FFF793FD40F2FF
:1025A0008F10ADF8040041F61F40ADF8080001A9F6
:1025B0000D4800F0D7F801210B4800F023F8372030
:1025C0008DF8000001208DF8030000208DF8010037
:1025D00002208DF802006846FFF772F901221146C9
:1025E000014800F032F81FBD0014004021B10288FC
:1025F00042F08002028004E002884FF67F731A40A6
:1026000002807047CA4302827047CA430282704701
:1026100021B1028842F00102028004E002884FF6F4
:10262000FE731A400280704730B502460020002336
:102630000024158A05EA0103958905EA010413B10E
:102640000CB1012000E0002030BD1AB183890B439A
:10265000838102E083898B43838170471FB5012109
:102660001020FFF72FFD41F61F40ADF804000920B0
:10267000ADF8080001A90F4800F074F801210D48D9
:10268000FFF7C0FF01210B48FFF7C2FF36208DF88E
:10269000000001208DF803008DF8010000208DF866
:1026A00002006846FFF70CF9012211460148FFF7C6
:1026B000CCFF1FBD0010004070B500240022002395
:1026C000058C4FF6FE7635400584028C8388048B9A
:1026D0004FF68F752C40B51E2C400D882C43751E6F
:1026E0002A400D892A434D882A43144DA8420BD015
:1026F000134DA84208D0134DA84205D0124DA84250
:1027000002D0124DA84213D14FF6F7752A404D89D9
:102710002A434FF6FB752A408D882A434FF6FF6502
:102720002B404FF6FF552B408D892B43CD892B43F2
:1027300083800483CD888586028470BD002C01408F
:102740000034014000400140004401400048014085
:102750000A460021018B4FF6F7731940114301839C
:1027600070470000002202881D4B98420ED01D4B7E
:1027700098420BD0B0F1804F08D01B4B984205D047
:102780001A4B984202D01A4B984204D14FF68F73DD
:102790001A404B881A43174B984207D0164B984261
:1027A00004D04FF6FF431A40CB881A4302808B882F
:1027B00083850B8803850A4B98420BD0094B9842BE
:1027C00008D00E4B984205D00D4B984202D00D4BCD
:1027D000984201D10B7A038601238382704700005F
:1027E000002C01400034014000040040000800407B
:1027F000000C004000100040001400400040014068
:10280000004401400048014010B586B00446012153
:102810000820FFF777FC01218804FFF753FC2348C9
:1028200000F0B6F84FF48060ADF8100003208DF88A
:10283000120018208DF8130004A91D48FEF7FEFDB4
:102840004FF40060ADF8100004208DF8130004A9C7
:102850001748FEF7F3FD00940020ADF80400ADF832
:102860000600ADF80800ADF80C000C20ADF80A0029
:1028700069460E4800F036F901210C4800F07CF85A
:10288000012240F22551094800F007F927208DF870
:10289000140001208DF815008DF816008DF8170032
:1028A00005A8FFF70DF806B010BD00000048004075
:1028B000000C014000B585B001218803FFF722FC20
:1028C00001210846FFF71EFC01210420FFF71AFC36
:1028D00018208DF813004FF40070ADF8100003209D
:1028E0008DF8120004A91348FEF7A8FD04208DF806
:1028F00013000002ADF8100004A90E48FEF79EFD7B
:102900004FF4E13000900020ADF80C000C20ADF841
:102910000A000020ADF80800ADF80600ADF804008C
:102920006946054800F0DEF80121034800F024F86C
:1029300005B000BD000801400038014008B5002086
:1029400000900121684601F029FF08BD08B500206C
:10295000009040F22551074800F075F840B1054855
:1029600000F02CF9C0B200900121684601F016FF7A
:1029700008BD00000048004021B1828942F40052A5
:10298000828104E082894DF6FF731A40828170478C
:1029900010B504462048844209D101218803FFF77D
:1029A000C1FB00214FF48040FFF7BCFB32E01B4825
:1029B000844209D101214804FFF794FB00214FF420
:1029C0000030FFF78FFB25E01548844209D1012133
:1029D0008804FFF787FB00214FF48020FFF782FB7C
:1029E00018E01048844209D10121C804FFF77AFB9E
:1029F00000214FF40020FFF775FB0BE00A488442EA
:102A000008D101210805FFF76DFB00214FF480106C
:102A1000FFF768FB10BD0000003801400044004093
:102A200000480040004C004000500040024600209A
:102A3000B1F5007F00D100BF13880B400BB101201E
:102A400000E00020704770B50246002400230025F6
:102A5000002040F66A16B14200D100BFC1F3421512
:102A600001F01F03012606FA03F3012D02D1968916
:102A7000334006E0022D02D1168A334001E0968AE7
:102A800033400C12012606FA04F41688344013B1C0
:102A90000CB1012000E0002070BDF0B50346002419
:102AA00000260025002040F66A17B94200D100BF79
:102AB0001846C1F3421401F01F06012707FA06F574
:102AC000012C01D10C3004E0022C01D1103000E0C7
:102AD00014301AB107682F43076002E00768AF435C
:102AE0000760F0BD2DE9F04786B005460E4600248C
:102AF000A24600BFA1460027B08900B100BF2F4603
:102B00002C8A4CF6FF700440F08804432C82AC8978
:102B10004EF6F3100440B0883189084371890843A8
:102B20000443AC81AC8A4FF6FF400440B0890443B3
:102B3000AC8201A8FFF706FB1F48874202D1DDF8EF
:102B400010A001E0DDF80CA0A88900F4004040B11D
:102B50000AEBCA0000EB0A1031684900B0FBF1F83B
:102B600007E00AEBCA0000EB0A1031688900B0FBED
:102B7000F1F86420B8FBF0F004012009642101FBA6
:102B80001089A88900F4004040B1322000EBC90050
:102B9000B0FBF1F000F00700044308E0322000EB46
:102BA00009106421B0FBF1F000F00F0004432C8108
:102BB00006B0BDE8F0870000003801400146888873
:102BC000C0F308007047C1F308028280704700BF5D
:102BD000FEE700000FB4054B10B503A9044A0298A4
:102BE00000F0DAF810BC5DF814FB0000693500084D
:102BF0006000002002E008C8121F08C1002AFAD1B4
:102C000070477047002001E001C1121F002AFBD16C
:102C1000704700002DE9FF5F82B00021DDE904303C
:102C2000020DDDF840B0034318D044F61050A2F274
:102C3000FF3242431514119801281FD0A5EB0B0059
:102C4000401C5FEA000A4FF000064E4FDFF8389153
:102C5000B046504615D5CAF1000413E0119801247E
:102C60004AA3012801D16FEA0B010298119AC0E929
:102C70000031C0E9024206B0BDE8F09FCBF1000090
:102C8000DFE704460021404A491842EB0450CDE9F1
:102C9000001012E0E00707D032463B464046494666
:102CA000FDF704FB8046894632463B4610461946EE
:102CB000FDF7FCFA06460F466410002CEAD1DDE968
:102CC0000401DDE90023BAF1000F06DAFDF7EEFAA0
:102CD00042464B46FDF7EAFA05E0FDF759FB42464E
:102CE0004B46FDF755FB04460E460022284BFDF7E8
:102CF000CFFD03D84FF0FF30014607E00022254BFF
:102D000020463146FDF705FDFDF7AAFD102409E038
:102D1000002C0ADB0A220023FDF736FC039B30322D
:102D20001A55641E50EA0102F2D1641C039AC4F1E0
:102D300011031444119A012A03D0012208430DD132
:102D40000AE0084304D000204FF0110B119072E705
:102D5000A3EB0B056D1E0DE05B4504DD4FF000029B
:102D600005F1010504E003DA4FF00002A5F10105C9
:102D7000002AECD002981199C0E90231C0E900455F
:102D800079E70000000014400000F03F3000000030
:102D90000000F0430000E03F2DE9FF4F95B09B4657
:102DA0008946064600250FE2252877D100242746CC
:102DB000F84A0121059400E0044316F8013F203B46
:102DC00001FA03F01042F7D130782A2811D06FF0C1
:102DD0002F033078A0F13002092A16D8059A44F062
:102DE000020402EB820203EB42021044761C0590BF
:102DF000EFE759F8042B0592002A03DA504244F415
:102E00000054059044F00204761C30782E2816D128
:102E100016F8010F44F004042A280DD06FF02F0299
:102E20003078A0F13003092B09D807EB870302EBB8
:102E30004303C718761CF3E759F8047B761C3078F7
:102E40006C280FD006DC4C2817D068280DD06A28D3
:102E500014D104E0742810D07A280FD10DE044F486
:102E600000140AE044F4801401E044F44014727841
:102E7000824202D104F58014761C761C30786628D4
:102E80000BD013DC582877D009DC002875D04528F2
:102E9000F6D04628F4D047281AD19DE118E06328DF
:102EA00035D0642879D0652812D195E1702873D087
:102EB00008DC6728F1D069286FD06E280DD06F2804
:102EC00006D1B5E073282CD0752875D0782874D039
:102ED0005A46179990476D1C75E1C4F302500228B9
:102EE00009D003280DD0D9F8001004280DD00D60AA
:102EF00009F1040967E1D9F80010EA17C1E90052A5
:102F0000F6E7D9F800100D80F2E70D70F0E719F838
:102F1000041B8DF8001000208DF80100EA46012006
:102F200003E059F804AB4FF0FF3061074FF00001A8
:102F300002D40DE008F101018846B9420FDA80455C
:102F4000F8DB1AF808100029F4D108E008F10101B3
:102F500088468142FADB1AF808100029F6D1059854
:102F60005B46A0EB080721463846179A00F094FA12
:102F7000284400EB080507E04DE029E10DE01AF8D0
:102F8000010B5A4617999047B8F10108F7D25B46F2
:102F900021463846179A13E142E00A220092C4F310
:102FA00002524FF0000A022A08D059F804CB032A33
:102FB0004FEAEC710AD00DE029E02AE009F107019F
:102FC00021F00702F2E802C1914609E00FFA8CFCF9
:102FD0004FEAEC71042A03D14FFA8CFC4FEAEC71F2
:102FE000002907DA0A460021DCF1000C61EB02013E
:102FF0002D2202E0220504D52B228DF80420012287
:1030000003E0E20701D02022F7E7904659E00A21C9
:1030100002E010220DE010214FF0000A00910BE0B9
:1030200010224FF0000A44F004040827009203E045
:1030300008224FF0000A0092C4F30252022A05D07F
:1030400059F804CB0021032A08D009E009F107014F
:1030500021F00702F2E802C1914605E01FFA8CFC5C
:10306000042A01D10CF0FF0C4FF00008220728D5EC
:10307000702806D0009B83F0100353EA0A0305D0A2
:103080000EE040228DF80420012208E05CEA0102F3
:1030900006D030228DF804208DF8050002229046DB
:1030A000009B83F0080353EA0A030AD15CEA010299
:1030B00001D1620705D530228DF804204FF00108B8
:1030C0007F1E582804D034A003900EA802900DE073
:1030D00036A0F9E753466046009AFDF755FA844654
:1030E0000398825C0298401E029002705CEA010024
:1030F000F0D1029806A9081A00F1200A600702D54B
:1031000024F4803400E00127574502DDA7EB0A00D4
:1031100000E0002000EB0A01009005984144401AAD
:103120000590E00306D45B462146179A059800F007
:10313000B3F90544002706E001A85A46C05D179977
:1031400090476D1C7F1C4745F6DBE0030CD55B46C2
:103150002146179A059800F09FF9054404E03020B5
:103160005A46179990476D1C0099481E00900029F7
:10317000F5DC08E0029802995A460078491C029151
:10318000179990476D1CBAF10001AAF1010AF1DC10
:1031900065E100000928010030313233343536371B
:1031A0003839616263646566000000003031323393
:1031B0003435363738394142434445460000000033
:1031C00000F058F90544761C307800287FF4ECAD07
:1031D00019B02846BDE8F08F620700D4062709F130
:1031E000070222F0070CFCE80223E14603F0004846
:1031F0005FEA080C02D00FF2702C0DE05FEA045C6D
:1032000002D50FF2682C07E05FEAC47C02D00FF20F
:10321000602C01E0AFF2700C4FF0FF3823F0004358
:10322000CDF850C065280CD006DC452809D04628CA
:103230001DD047283DD13DE0662818D067287ED1B3
:1032400038E00021112F01DB112000E0781CCDE9CE
:10325000000106A90EA8FFF7DDFCDDE90F010E9ABB
:1032600003910021009207F1010A04914DE04FF013
:1032700000400097CDE9011006A90EA8FFF7CAFC8F
:10328000DDE90F0203920E9B11990022DDF80CA0DC
:103290000093049211B9791C00EB010AB7EB0A0004
:1032A00004D4C0F1FF3007F1010A0490AAEB070033
:1032B000019044E0012F00DA01270021112F01DDE8
:1032C000112000E03846CDE9000106A90EA8FFF75D
:1032D000A1FCDDE90F010E9A0391002104910092F7
:1032E000BA4621070CD40399514500DA8A46BAF14F
:1032F000010F05DD009AAAF10101515C302908D0C7
:10330000B84202DA10F1040F06DA0121CDE901100A
:1033100015E0AAF10101E9E7002805DC0499014460
:103320000491AAEB000102E0411C514500DD8A46F0
:103330000499401A401C01904FF000400290200771
:1033400004D40198504501DBCDF8048000208DF8AD
:103350004F0002980DF14F07B0F1004F25D02B2000
:103360000E9002984FF0020800280CDA40420290BA
:103370002D200E9007E00A210298FDF7EFF830317A
:10338000029007F8011DB8F10001A8F10108F2DC74
:1033900002980028EFD1791E0E980870307800F05E
:1033A000200040F0450007F8020D12A8C01B00F1F4
:1033B00007081498007800B1012000EB0A01019879
:1033C00001EBE07105984144401A401E0590E0036E
:1033D00006D45B462146179A059800F05DF805442F
:1033E0001498007818B15A46179990476D1CE0035D
:1033F00024D55B462146179A059800F04DF8054400
:103400001CE00498002807DBDDE90301884203DDA6
:103410000098405C179901E0179930205A46904770
:10342000049805F10105401C04900198401E01908C
:1034300004D12E205A46179990476D1CBAF100010D
:10344000AAF1010ADDDC05E017F8010B5A461799CD
:1034500090476D1CB8F10001A8F10108F4DC5B464F
:103460002146179A0598ABE62D0000002B000000BE
:10347000200000002DE9F041044600251E461746B5
:10348000880404D405E039462020B0476D1C641E32
:10349000F9D52846BDE8F0812DE9F0410446002524
:1034A0001E469046C80301D5302700E02027880437
:1034B00004D505E041463846B0476D1C641EF9D579
:1034C0002846BDE8F08110B5044603E04FF47A7059
:1034D00000F005F8201EA4F10104F7D110BD05E0AD
:1034E000052100BF0A1EA1F10101FBD1021EA0F1BE
:1034F0000100F5D17047000001210120094A12683E
:103500000AB100200CE0084A12680AB1002007E066
:10351000064A1368064A1268521E934200D10220DE
:1035200070470000500B0020DC050020780B0020C5
:10353000C805002001B581B000200090694601AAAD
:103540005078087010784870BDF800000CBD014636
:10355000080601F47F4240EA022001F47F0240EABB
:10356000122040EA1160704770B504460D46A1B2C2
:103570000548FFF728FB00BF80210348FFF756FAF4
:103580000128F9D1002070BD003801402DE9F0413B
:1035900004460D460027002604B135B936A0FFF7D2
:1035A00019FB4FF0FF30BDE8F08100F087F90646C7
:1035B0002868216888420AD039480068301A41F2E8
:1035C0007071884203D337A0FFF704FB01276868B6
:1035D000616888420AD032480068301A41F270713E
:1035E000884203D336A0FFF7F5FA0127A168A8683F
:1035F000FCF7AAFF0AD02A480068301A41F270711D
:10360000884203D335A0FFF7E5FA0127E868E168AF
:1036100088420AD022480068301A41F2707188420C
:1036200003D334A0FFF7D6FA01272869216988421D
:103630000AD01B480068301A41F27071884203D3E7
:1036400033A0FFF7C7FA01276869616988420AD089
:1036500013480068301A41F27071884203D332A0D7
:10366000FFF7B8FA0127012F03D100F027F90C4921
:103670000860384697E7000067697A436865636BBE
:103680005265706F7274204572726F72202C2049DF
:103690006C6C6567616C20506172616D0A0000009E
:1036A0006800002076616C756577656E64755F767D
:1036B000616C7565204368616E6765640A0000008F
:1036C00076616C756573686964755F76616C756544
:1036D000204368616E6765640A00000076616C755E
:1036E00065565F76616C7565204368616E676564D9
:1036F0000A00000076616C7565736D6F6B655F76AF
:10370000616C7565204368616E6765640A0000003E
:1037100076616C7565434F325F76616C75652043E9
:1037200068616E6765640A0076616C756554564F12
:10373000435F76616C7565204368616E6765640AF6
:103740000000000070B504460D4604B12DB920A05C
:10375000FFF740FA4FF0FF3070BD22686FF00901AB
:10376000012001F0C7F8287062680021012001F0F3
:10377000C1F86870A068FCF78BFE0646324600214F
:10378000012001F0B7F8A870E2680021012001F0E3
:10379000B1F886B23046FFF7CDFEA5F803002269E6
:1037A0000021012001F0A6F886B23046FFF7C2FEE4
:1037B000A5F8050062690021012001F09BF886B29E
:1037C0003046FFF7B7FEA5F807000020C4E7000069
:1037D00067697A44617461506F696E7473325265BF
:1037E000706F727444617461204572726F72202C24
:1037F00020496C6C6567616C20506172616D0A00D4
:1038000070B5054600F05AF804461D492846FFF7F2
:10381000BDFE012813D11BA0FFF7DCF9184921399F
:103820002846FFF78FFF28B90922154921390420BE
:1038300000F0EEFF182229461148FCF7E1FC17487A
:10384000B4FBF0F100FB1140C8B915480068A04274
:1038500015D014A0FFF7BEF9094921392846FFF712
:1038600071FF28B9092206492139042000F0D0FF50
:10387000182229460248FCF7C3FC0948046070BDC1
:10388000A70700206368616E6765642C207265700D
:103890006F727420646174610A000000C02709001F
:1038A0006C000020496E666F3A203630305320722B
:1038B00065706F727420646174610A000148006869
:1038C000704700006400002010B5164890F84800CA
:1038D000012825D1134890F8470002281BDAFFF78A
:1038E000EDFF1049896E401AC82819D9FFF7E6FF85
:1038F00004460C4890F84730826E21460AA0FFF734
:1039000069F900F0A5FE074890F84700401C0549FA
:1039100081F8470004E0252102484730FCF789FC84
:1039200010BD0000D20600205761726E696E673AC2
:1039300067697A50726F746F636F6C526573656EEE
:1039400064446174612025642025642025640A0094
:103950003EB50446002524B913A0FFF73BF9681EC5
:103960003EBD20680090606801909DF80400401CF6
:10397000C0B28DF804000520FFF7DCFDADF80200B1
:103980000921684600F0A2FE8DF80800092168466A
:1039900002F066FB0546002D03DA29460DA0FFF76D
:1039A00019F92846DCE700004552523A2067697A47
:1039B00050726F746F636F6C436F6D6D6F6E4163A8
:1039C0006B206461746120697320656D7074792067
:1039D0000A0000004552523A2075617274207772D5
:1039E000697465206572726F72202564200A000078
:1039F000FEB504460E46002524B914A0FFF7EAF8E8
:103A0000681EFEBD684600F0D7F912208DF804004C
:103A100060798DF805000620FFF78CFDADF80200F7
:103A20008DF808600A21684600F050FE8DF8090004
:103A30000A21684602F014FB0546002D03DA2946E8
:103A40000DA0FFF7C7F82846DBE7000067697A504A
:103A5000726F746F636F6C4572726F72436D642026
:103A60004572726F72202C20496C6C6567616C2006
:103A7000506172616D0A00004552523A20756172C0
:103A800074207772697465206572726F7220256484
:103A9000200A000030B59DB0044600252CB92BA0AB
:103AA000FFF798F8681E1DB030BD684600F084F935
:103AB00002208DF8040060798DF805002FA103C95C
:103AC000CDE9020130A103C9CDE9040131A103C947
:103AD000CDE9080132A103C9CDE90601202233A1B5
:103AE0000AA8FCF78DFB202239A10DF15200FCF74A
:103AF00087FB0020CDF84A00CDF84E009DF851001C
:103B00008DF851009DF8510040F002018DF85110E0
:103B10000020FFF70FFDADF848006F20FFF70AFD0A
:103B2000ADF802007321684600F0D0FD8DF87200F8
:103B30007321684602F094FA0546002D03DA2946FF
:103B40002CA0FFF747F82846ADE7000067697A50D8
:103B5000726F746F636F6C476574446576696365F3
:103B6000496E666F204572726F72202C20496C6C12
:103B70006567616C20506172616D0A0030303030D1
:103B800030303034000000003030303030303032EF
:103B9000000000003033303330303030000000009F
:103BA000303330313031303000000000383066358D
:103BB0006138663565323164346435633932376271
:103BC000333738313436333436663831000000004C
:103BD000313335343261643534656362346238625E
:103BE0006261336331643132616662343631353754
:103BF000000000004552523A2075617274207772BD
:103C0000697465206572726F72202564200A000055
:103C10002DE9FE4F80460E4617464FF0000B002060
:103C2000029081468246002534460090B8F1000F8C
:103C300001D006B137B950A0FEF7CCFF4FF0FF30EE
:103C4000BDE8FE8F404602F02FF900F0FF0ABAF1FE
:103C5000000F02D14FF0FF30F2E74FF000095DE0B6
:103C6000012201A9404602F05CF98346BBF1000F36
:103C700052D04D480078FF281FD19DF80400FF283E
:103C80001BD14A48007848B9FF202070607002209C
:103C90004749088001204549087034E044480088BD
:103CA000042830DD42480088A8422CD0FF20207034
:103CB000607002203E49088025E03B480078FF28DC
:103CC00003D19DF8040055281DD0384800780128FC
:103CD00019D19DF804003649098860543448008899
:103CE000401C334908800846008804280BDD0094F6
:103CF000009C6088FFF71EFC001D85B22C480088E0
:103D0000A84200D10CE09DF804002749087029481A
:103D10000078401C2749087009F10109D1459FDB53
:103D200000BF23480088042823DD21480088A842DA
:103D30001FD11F480188204600F0C8FC02901C4893
:103D40000088401E215C029881420FD12A462146FC
:103D50003046FCF755FA3D8000201449087014499C
:103D60000880144908701049087069E76FF0010075
:103D700066E7012064E7000067697A50726F746F2C
:103D8000636F6C4765744F6E655061636B6574203B
:103D90004572726F72202C20496C6C6567616C20D3
:103DA000506172616D0A00007400002070000020F4
:103DB000720000207500002010B504462CB907A041
:103DC000FEF708FF4FF0FF3010BD0020206060605C
:103DD000FF20207060700020F6E700004552523A44
:103DE0002067697A50726F746F636F6C48656164A5
:103DF000496E6974206865616420697320656D701F
:103E00007479200A000000002DE9F04F91B00646B9
:103E10008B46174699460020109082468046002522
:103E200001ACBBF1000F06D131A0FEF7D3FE681E36
:103E300011B0BDE8F08FB9F1010F06D196F80880F6
:103E400008F10600384485B201E0781D85B22B46A2
:103E5000424639462CA0FEF7BDFEFF2004F8010BB8
:103E600004F8010B281204F8010B04F8015B307907
:103E7000401C04F8010B707904F8010B002004F8D1
:103E8000010B04F8019B4FF0080AB9F1010F0DD1A5
:103E900004F8018B0AF1010A01A901EB0A0042466C
:103EA00006F10901FCF7ACF9C244444437B101A959
:103EB00001EB0A003A465946FCF7A2F9291D01A870
:103EC00000F004FC0146E81C01AA1154291D01A8B8
:103ED00002F0C6F810901098002806DA14A0109985
:103EE000FEF778FE6FF00100A2E70020A0E70000D7
:103EF0005B4552525D202064617461204973204EFD
:103F0000756C6C200A0000006C656E203D202564F5
:103F1000202C20734469644C656E203D202564206C
:103F20002C646174615F6C656E203D2025640A001D
:103F300075617274207772697465206572726F7230
:103F4000202564200A0000002DE9F04780460C4639
:103F500017461D46089E94F800900CB105B136B97D
:103F60002DA0FEF737FE4FF0FF30BDE8F087B8F127
:103F7000000F4ED112213448FCF75BF9B9F1010F63
:103F800006D0B9F1020F07D0B9F1050F3FD11EE0FD
:103F90000025002030603BE02B49483101F1210031
:103FA000FFF7D0FB78B928481430416BC5F80110F1
:103FB000816BC5F8051090F83C00687203202870EA
:103FC0000A20306002E04FF0FF30CEE720E07A1E9A
:103FD000611C1D484E38FCF713F9781E1A496C39DC
:103FE000C1F83B00102118486C3890F86C206D30F7
:103FF00081546D3890F86C00401C13496C3981F87D
:104000006C000320087000250020306000E000BF35
:1040100000BF0020A9E7000067697A50726F746FD3
:10402000636F6C49737375656450726F6365737306
:10403000204572726F72202C20496C6C6567616C30
:1040400020506172616D0A003E07002070B5044681
:1040500025462CB90FA0FEF7BDFD4FF0FF3070BD17
:10406000412205F108010F48FCF7CAF80F210D485D
:10407000FA3890F8A220A3308154A33890F8A20017
:10408000401C0849FA3981F8A20005200870002078
:10409000E5E700004E545020697320656D70747917
:1040A000200A0000CC07002010B504462CB9CAA095
:1040B000FEF790FD4FF0FF3010BD2089FFF73AFA70
:1040C0002081D1480078C0F38000217AC1F38001BB
:1040D000884256D0207AC0F38000002829D0207A68
:1040E00000F0010078B10021C84890F87E207F30B0
:1040F00081547F3890F87E00401CC44981F87E00CE
:10410000C3A0FEF767FD207AC0F34000002838D036
:104110000121BE4890F87E207F3081547F3890F88E
:104120007E00401CB94981F87E00C1A0FEF752FD17
:1041300027E0207A00F0010078B10021B34890F820
:104140007E207F3081547F3890F87E00401CAF493C
:1041500081F87E00AEA0FEF73DFD207AC0F340005E
:1041600078B10221A94890F87E207F3081547F38B1
:1041700090F87E00401CA54981F87E00B3A0FEF7B0
:1041800029FDA1480078C0F3C000217AC1F3C00125
:1041900088422CD0207AC1089B48007861F3C30084
:1041A00099490870207AC0F3C00080B10321974874
:1041B00090F87E207F3081547F3890F87E00401C3C
:1041C000924981F87E00A8A0FEF704FD0FE00421CB
:1041D0008E4890F87E207F3081547F3890F87E00A2
:1041E000401C8A4981F87E00A7A0FEF7F3FC8648B0
:1041F0000078C0F30010217AC1F3001188422CD05E
:10420000207A01098048007861F304107E49087023
:10421000207AC0F3001080B105217C4890F87E2000
:104220007F3081547F3890F87E00401C774981F8B8
:104230007E009DA0FEF7CEFC0FE00621734890F8AB
:104240007E207F3081547F3890F87E00401C6F497B
:1042500081F87E009CA0FEF7BDFC6B480078C0F39F
:104260004010217AC1F3401188422CD0207A4109B4
:104270006548007861F3451063490870207AC0F3FF
:10428000401080B10721614890F87E207F30815432
:104290007F3890F87E00401C5C4981F87E0093A036
:1042A000FEF798FC0FE00821584890F87E207F30F8
:1042B00081547F3890F87E00401C544981F87E007C
:1042C00091A0FEF787FC50484078C0F3C001607AA7
:1042D000C0F3C00081422CD0607AC1084A484078BF
:1042E00061F3C30048494870607AC0F3C00080B1F0
:1042F0000B21464890F87E207F3081547F3890F81B
:104300007E00401C414981F87E0087A0FEF762FCD8
:104310000FE00C213D4890F87E207F3081547F389B
:1043200090F87E00401C394981F87E0085A0FEF798
:1043300051FC35484078C0F30011607AC0F300109A
:1043400081422CD0607A01092F48407861F3041033
:104350002D494870607AC0F3001080B109212B48C4
:1043600090F87E207F3081547F3890F87E00401C8A
:10437000264981F87E007BA0FEF72CFC0FE00A2185
:10438000224890F87E207F3081547F3890F87E005C
:10439000401C1E4981F87E0079A0FEF71BFC0D2110
:1043A0001A4890F87E207F3081547F3890F87E0044
:1043B000401C164981F87E00607A00F0070081F801
:1043C000ED00084690F8ED1074A0FEF703FC022003
:1043D0000E49087000206FE667697A50726F746F3B
:1043E000636F6C4D6F64756C655374617475732085
:1043F0004572726F72202C20496C6C6567616C206D
:10440000506172616D0A000076000020D206002023
:104410004F6E426F617264696E673A20536F6674C3
:104420004150206F7220576562206D6F64650A00ED
:104430004F6E426F617264696E673A204169724CD7
:10444000696E6B206D6F64650A0000004F6E426FED
:10445000617264696E673A2053746174696F6E208B
:104460006D6F64650A0000005769466920737461C6
:104470007475733A20696E2062696E64696E672094
:104480006D6F64650A0000005769466920737461A6
:104490007475733A206F75742062696E64696E6713
:1044A000206D6F64650A0000576946692073746166
:1044B0007475733A20636F6E6E6563746564207201
:1044C0006F757465720A00005769466920737461DC
:1044D0007475733A20646973636F6E6E6563746597
:1044E0006420726F757465720A000000576946692E
:1044F000207374617475733A20636F6E6E656374B4
:104500006564206D326D0A005769466920737461D5
:104510007475733A20646973636F6E6E6563746556
:1045200064206D326D0A000057694669207374611A
:104530007475733A2061707020636F6E6E6563747A
:104540000A00000057694669207374617475733AF4
:10455000206E6F2061707020636F6E6E6563740AE9
:104560000000000057694669207374617475733ADE
:1045700020696E2074657374206D6F64650A000095
:1045800057694669207374617475733A206F757446
:104590002074657374206D6F64650A00525353492B
:1045A000206973202564200A0000000070B50446CD
:1045B00025462CB919A0FEF70DFB4FF0FF3070BD5A
:1045C0001B48A9680160E9684160298A0181A97CCA
:1045D0008172A0F1EE01B1F8EE00FEF7ABFF1449D5
:1045E000EE39A1F8EE00D1F8F600FEF7B0FF104961
:1045F000EE39C1F8F6000E210D48EE3890F8902003
:1046000091308154913890F89000401C0849EE395F
:1046100081F89000042008700020D0E74552523AFB
:10462000204E545020697320656D707479200A0003
:10463000C007002010B5FFF741F9044600BFFFF79F
:104640003DF9001BB0F5167FF9D900F01DFD10BD36
:1046500010B500240E4890F8480000B910BD0DA018
:10466000FEF7B8FA0A48B0F86610493001F0F8FCD5
:1046700004460748B0F86600A04202D00DA0FEF73D
:10468000A9FAFFF71BF90249886600BFE6E70000B8
:10469000D20600205761726E696E673A2074696DA8
:1046A000656F75742C20726573656E642064617427
:1046B00061200A004552523A20726573656E64208B
:1046C00064617461206572726F720A0010B50246EF
:1046D0000024002302B109B9002010BD022303E029
:1046E000D05C2044C4B25B1C481E9842F8D82046D7
:1046F000F3E7000070B504460D462CB90EA0FEF796
:1047000069FA4FF0FF3070BD25211148FBF791FD8C
:104710002A4621460E48801CFBF772FD0C4847389C
:10472000A0F86650012180F84810FFF7C7F8084943
:10473000473988660020E6E74552523A20646174A2
:104740006120697320656D707479200A0000000093
:104750001907002070B50446094D2CB909A0FEF7D1
:1047600039FA4FF0FF3070BD2879401C217988421A
:1047700004D125210248801EFBF75BFD0020F2E7F3
:104780001B0700204552523A20646174612069730E
:1047900020656D707479200A0000000070B5044631
:1047A0000D46002624B90AA0FEF714FA701E70BD4B
:1047B0002A4621460E4801F005FC0646AE4205D0C9
:1047C0000CA0FEF707FA4FF0FF30F0E73046EEE7B7
:1047D0004552523A2067697A507574446174612079
:1047E00062756620697320656D707479200A000017
:1047F0000D0800204552523A204661696C656420DC
:10480000746F2072625772697465200A000000009C
:10481000F0B585B005460E46174600242EB91FA0F8
:10482000FEF7D8F9601E05B0F0BD6846FFF7C4FA80
:1048300005208DF80400234890F83F10D0F83F0081
:10484000401C204AC2F83F00C8B28DF805008DF820
:1048500008500F20FEF76EFEADF802003A463146D2
:104860000DF10900FBF7CCFC13216846FFF72EFF82
:104870008DF812001321684601F0F2FB0446002C6B
:1048800006DA214610A0FEF7A5F96FF00100CAE78D
:1048900013216846FFF72EFF2046C4E767697A5266
:1048A00065706F727444617461204572726F72201A
:1048B0002C20496C6C6567616C20506172616D0AD7
:1048C00000000000D20600204552523A2075617265
:1048D00074207772697465206572726F7220256426
:1048E000200A000002480068401C01490860704727
:1048F0006400002010B503460020541AB4FBF3F006
:1049000010BD00002DE9FF5F06460D4693460027C7
:10491000A846A9462C46AA4606B125B94FF0FF3055
:1049200004B0BDE8F09F00273EE0701CC05D112878
:1049300036D2DFE800F0090A0B35350C0D0E0F35C5
:10494000353535101A2916002BE02AE029E028E039
:1049500027E026E025E099F8001016A0FEF73AF9C6
:104960001FE017A0FEF736F91BE0A17962792379E1
:10497000A068CDE90032CDE90210E378A278218861
:1049800014A0FEF727F90CE01DA0FEF723F921A0E3
:10499000FEF720F99AF8001022A0FEF71BF900E0BC
:1049A00000BF00BF781CC7B23078B842BDDC002021
:1049B000B6E70000525353492025640A0000000066
:1049C0005452414E53504152454E545F444154411C
:1049D000200A0000574946495F4E5450203A205B58
:1049E00025642D25642D256420253032643A253038
:1049F00032643A253032645D5B25645D200A000034
:104A00004D4F44554C4520494E464F202E2E2E0AE0
:104A100000000000574946204D4F44554C45202E7C
:104A20002E2E0A006D6F64756C6554797065203A9E
:104A3000205B25645D200A002DE9F04192B0054617
:104A4000002600200290019000248046002735B9FE
:104A500081A0FEF7BFF8601E12B0BDE8F081FEF73E
:104A600033FF02AA86498748FFF7D2F80646002E90
:104A700071D185A0FEF7AEF8814C20790F284FD078
:104A80000ADC0E2873D2DFE800F07216721A727216
:104A9000433872724472453C182852D006DC112803
:104AA00047D0142846D0162861D134E0222854D0AB
:104AB0002A285CD130E02046FEF7ECFF5FE0E27987
:104AC000A17976A0FEF786F801A8009007F1090009
:104AD000BDF808301A1A6A480830C11903AB4046BD
:104AE000FFF732FA40B9E37903A92046019AFFF7AC
:104AF0008BF96EA0FEF76EF841E02046FEF728FF26
:104B00003DE02046FEF724FF2046FFF7CDFA36E0D1
:104B100000BF00BF00BF00BF2046FFF71BFE2EE016
:104B20002046FEF715FF64A0FEF754F8FFF782FD5C
:104B300025E024E02046FFF70DFE64A0FEF74AF8CA
:104B40001DE02046FFF706FE2046FFF72FFD67A079
:104B5000FEF740F813E013E009E02046FFF7FAFD06
:104B60002046FFF773FA67A0FEF734F807E002214A
:104B70002046FEF73DFF6AA0FEF72CF800BF0DE0CF
:104B800016F1020F0AD13E4C01212046FEF730FFFC
:104B900069A0FEF71FF86FF001005DE73848401E7E
:104BA0000078062850D2DFE800F04F0313232F3F90
:104BB00000203349491E08701822BD31A1F151006F
:104BC000FFF7A0FE12212E486B30FBF732FB3CE0D2
:104BD00000202B49491E08700122ED31A1F16F0020
:104BE000FFF790FE122126487D30FBF722FB2CE0D8
:104BF00000202349491E08700846D0F83B201E318A
:104C00006C30FFF77FFE20E000201D49491E087030
:104C10000C22EE31A1F15E00FFF774FE122118485C
:104C20008F30FBF706FB10E000201549491E087085
:104C30004122FA31A1F15800FFF764FE41211048EA
:104C4000A130FBF7F6FA00E000BF00BF2846FEF7F0
:104C5000D7FD002000E7000047697A776974734840
:104C6000616E646C65204572726F72202C20496CF5
:104C70006C6567616C20506172616D0A0000000014
:104C8000D30600200D080020476574204F6E652074
:104C90005061636B6574210A00000000666C6167F7
:104CA000202578202578200A0000000041636B440D
:104CB000617461203A200A007265706F72743A4D17
:104CC0004355207265626F6F74210A0041636B2047
:104CD00050524F44554354494F4E5F4D4F44452029
:104CE00073756363657373200A00000041636B2072
:104CF0004745545F5554542073756363657373203F
:104D00000A00000041636B204745545F4D6F647596
:104D10006C652073756363657373200A000000007F
:104D20004552523A20636D6420636F64652065725A
:104D3000726F72210A0000004552523A2063686582
:104D4000636B2073756D206572726F72210A0000AB
:104D500010B53A200A4908600A48C860084601F0C0
:104D6000D5F818B908A0FDF735FF02E00BA0FDF754
:104D700031FF40F23B110E48FBF75BFA10BD00001B
:104D80000D0800201D080020726243726561746581
:104D90002053756363657373200A00007262437267
:104DA00065617465204661696C64200A000000003A
:104DB000D206002030B587B005460024062D7CD2EF
:104DC000DFE805F003305F90BDEA01A8FEF7F4FFCD
:104DD0000B208DF808008B4890F83F10D0F83F006A
:104DE000401C884AC2F83F00C8B28DF8090005206F
:104DF000FEF7A0FBADF80600092101A8FFF766FC4D
:104E00008DF80C00092101A801F02AF90446002CB4
:104E100003DA21467CA0FDF7DDFE092101A8FFF79A
:104E200069FCEAE004A8FEF7C7FF09208DF814002A
:104E3000744890F83F10D0F83F00401C714AC2F807
:104E40003F00C8B28DF815008DF818500620FEF707
:104E500071FBADF812000A2104A8FFF737FC8DF8AA
:104E600019000A2104A801F0FBF80446002C03DA1B
:104E7000214665A0FDF7AEFE0A2104A8FFF73AFC23
:104E8000BBE004A8FEF798FF09208DF814005D48E8
:104E900090F83F10D0F83F00401C5A4AC2F83F003B
:104EA000C8B28DF815008DF818500620FEF742FBA9
:104EB000ADF812000A2104A800E09AE0FFF706FC12
:104EC0008DF819000A2104A801F0CAF80446002C44
:104ED00003DA21464CA0FDF77DFE0A2104A8FFF766
:104EE00009FC8AE001A8FEF767FF13208DF808008F
:104EF000444890F83F10D0F83F00401C414AC2F8A7
:104F00003F00C8B28DF809000520FEF713FBADF88D
:104F10000600092101A8FFF7D9FB8DF80C00092133
:104F200001A801F09DF80446002C03DA214636A0C2
:104F3000FDF750FE092101A8FFF7DCFB5DE001A8A9
:104F4000FEF73AFF15208DF808002E4890F83F1024
:104F5000D0F83F00401C2B4AC2F83F00C8B28DF881
:104F600009000520FEF7E6FAADF80600092101A8C0
:104F7000FFF7ACFB8DF80C00092101A801F070F8D7
:104F80000446002C03DA21461FA0FDF723FE092169
:104F900001A8FFF7AFFB30E001A8FEF70DFF2920C5
:104FA0008DF80800174890F83F10D0F83F00401CDB
:104FB000144AC2F83F00C8B28DF809000520FEF778
:104FC000B9FAADF80600092101A8FFF77FFB8DF8BB
:104FD0000C00092101A801F043F80446002C03DA73
:104FE000214609A0FDF7F6FD092101A8FFF782FB84
:104FF00003E00CA0FDF7EEFD00BF00BF204607B0A8
:1050000030BD0000D20600204552523A2075617230
:1050100074207772697465206572726F72202564DE
:10502000200A00004552523A204366674D6F64657E
:10503000206572726F72210A000000001CB5FBF738
:105040007DFE01240A48012100230A02CDE9001057
:1050500008A10C4802F074F90446012C02D101F0B9
:105060004DFC02E04FF0FF301CBD00BFFEE700002A
:10507000000000204170705461736B43726561746D
:1050800065000000D90B0008012080F3138800BFE1
:1050900000BF0748006800F4E06006490843001DAF
:1050A00003490860BFF34F8F00BF00BFFEE7000059
:1050B0000CED00E00000FA0510B50246012000E00A
:1050C00050430B1EA1F10104E1B2F9D110BD000063
:1050D0002DE9F04105460E461C4807681C4800684B
:1050E000001D00F0EAFF50B91948006890F82C1034
:1050F0000120884017490968814316480160681CEF
:1051000038B936B112480168091D134801F013F887
:105110001AE07C190E4800684460BC4207D20C4873
:105120000168091D0D48006800F0EBFF0CE008481D
:105130000168091D0A48006800F0E3FF094800689B
:10514000844201D207480460BDE8F081CC0500200C
:10515000B8050020D0050020780B0020C0050020F5
:10516000BC050020E805002010B5044600F0F0FF63
:1051700023480068401C224908602248006840B962
:10518000204804600846006801280DD100F054FA58
:105190000AE01D48006838B91A480068C06AE16A28
:1051A000884201D81748046018480068401C174915
:1051B000086094F82C1001208840154909680843BC
:1051C00013490860E16A01EB8101124A02EB810098
:1051D000211D00F0B0FF00F0FDFF0B48006868B132
:1051E00008480068C06AE16A884207D24FF08050E0
:1051F00009490860BFF34F8FBFF36F8F10BD0000E8
:10520000C8050020B8050020D4050020E4050020D2
:10521000D0050020A808002004ED00E010B500F043
:1052200097FF10480068D0B90F4800F05AFF0F48A8
:1052300000F057FF0C480E4908600C480D49086003
:10524000002210210A2001F03FFD064908600846AF
:10525000006820B108A10348006801F06DF900F072
:10526000B9FF10BDFC0500208C0B0020A00B002016
:10527000F4050020F8050020546D72510000000074
:1052800070B523E001F046FC1348006808B901201E
:1052900000E00020054602F017FABDB900F058FF03
:1052A0000D48C068C468201D00F007FF0B48006867
:1052B000401E0A4908600A480068401E0849086004
:1052C00000F088FF204600F060F800BF0448006846
:1052D0000028D7D170BD0000640B0020C805002055
:1052E000C405002070B504460D46206C70B1216CD9
:1052F000E0680844E0606168E068884201D32068A3
:10530000E0602846226CE168FAF77AFF70BD2DE96B
:10531000F04104460F4615464FF00008A66B206C7E
:1053200040B9206860BB606802F002F98046002046
:10533000606025E07DB93946226CA068FAF760FF0D
:10534000216CA0680844A060D4E90110884217D3FA
:105350002068A06014E03946226CE068FAF750FF3C
:10536000216CE068401AE0602168E068884203D25E
:10537000216C6068401AE060022D01D106B1761EF2
:10538000701CA0634046BDE8F08110B50446206B58
:1053900000F056FF204600F053FF10BD002101220F
:1053A0000C4B1B68012B00D901210B4A1268D26AF1
:1053B0000AB100200DE0094A1268012A01D9002033
:1053C00007E009B1002004E0054A1268054B1B689C
:1053D000D01A7047D0050020B8050020A80800208A
:1053E000E8050020CC0500200146084A1268126832
:1053F0000AB9012200E000220A600A6822B9034AC1
:105400001268D268106800E000207047F4050020A0
:1054100030B54FF41043174800F007042CB1C01DFD
:1054200020F00700134C041B1B1B0246124C226089
:105430000024114D6C60D018083820F007000F4C84
:10544000206000240D4D2D686C600C4D2D682C6083
:105450001146441A4C60094C24680C60084D4C6895
:105460002C60084D4C682C604FF00044064D2C60B9
:1054700030BD0000B40B00200806002010060020FC
:1054800018060020140600201C06002000BFFFF7AD
:10549000F7FE17480068012807D94FF080501549DA
:1054A0000860BFF34F8FBFF36F8FFFF777FF04469E
:1054B000022C1BD301F02EFB0F4800680F4909682E
:1054C000884201D3012000E0002028B940F68C4238
:1054D0000BA111A0FDF77EFBFFF760FF0446022C35
:1054E00002D3204600F034FF02F0EEF8CFE70000D0
:1054F000A808002004ED00E0E8050020CC0500200D
:105500002E2E5C4672656552544F535C7372635C19
:105510007461736B732E63004572726F723A2573F8
:105520002C25640D0A00000010B504464CB1002083
:1055300060602060E06000231A461946204601F0B2
:105540003FFD10BD2DE9F04106460D461746984631
:10555000069C0DB9246000E02760E6632564012104
:10556000204601F0D3FC0020A064BDE8F0810000DB
:105570002DE9FF5F81460F469246DDE90E6B109CD8
:10558000AAF10100216B01EB800828F0070808F060
:10559000070008B9012000E0002028B940F22B32B2
:1055A0001BA121A0FDF716FB002507E0795D04F1A2
:1055B00034004155785D00B902E06D1C102DF5D323
:1055C00000BF002143200155202E00D31F26E66294
:1055D00066640020A064201D00F090FD04F1180016
:1055E00000F08CFD2461C6F12000A06164620020FF
:1055F000E06484F8500049464046039A00F042FCBB
:105600002060BBF1000F01D0CBF80040BDE8FF9F48
:105610002E2E5C4672656552544F535C7372635C08
:105620007461736B732E63004572726F723A2573E7
:105630002C25640D0A00000010B5002407E004EBDF
:1056400084010F4A02EB810000F04BFD641C202C0A
:10565000F5D30C4800F045FD0B4800F042FD0B4827
:1056600000F03FFD0A4800F03CFD0A4800F039FD1B
:1056700004480949086004480849086010BD000052
:10568000A8080020280B00203C0B0020500B002015
:10569000640B0020780B0020BC050020C005002012
:1056A00010B50146164800E0006803688B42FBD342
:1056B0000246436813448B4204D143684C68234438
:1056C000436001460A464B6813440468A34211D163
:1056D0000C4C03682468A34208D04B6804686468D3
:1056E00023444B6003681B680B6005E0054B1B6897
:1056F0000B6001E003680B60884200D0016010BDC0
:1057000008060020100600202DE9F04104460D4651
:1057100016461F464FF0000865602461B5420CD85C
:10572000F01BA169884202D34FF0010811E0211D4E
:105730000948006800F0E5FC0BE0BE4204D2BD421F
:1057400002D34FF0010804E0211D0448006800F076
:10575000D8FC4046BDE8F081F8050020F4050020A3
:1057600070B5054600F0F4FCA86B08B9012400E010
:10577000002400F02FFD204670BD70B5054600F0F6
:10578000E7FCA86BE96B884201D1012400E000240A
:1057900000F020FD204670BD2DE9F3410D46009834
:1057A000846C00272CB940F6CE121AA11FA0FDF779
:1057B00011FAA06BE16B884201D2012000E00020C9
:1057C00028B940F6CF1213A118A0FDF703FAA06B79
:1057D000E16B88421BD294F945602A46694620460F
:1057E000FFF795FD0746701C60B9606A08B9012093
:1057F00000E0002050B904F1240001F007FF28B1B7
:10580000012703E0701C40B284F8450000BF384611
:10581000BDE8FC812E2E5C4672656552544F535C88
:105820007372635C71756575652E63004572726F86
:10583000723A25732C25640D0A000000F8B5054660
:105840000F4613480068C068C468201D00F035FC8E
:10585000E069012818D1A06941192B463A46204633
:10586000FFF752FF80B1002003462A460146009010
:10587000204602F05FF806462EB94FF4027205A1E9
:105880000BA0FDF7A7F900BF2046616A8847F8BD65
:10589000F40500202E2E5C4672656552544F535C11
:1058A0007372635C74696D6572732E63000000002F
:1058B0004572726F723A25732C25640D0A00000040
:1058C000F0B587B070E0039800280CDA04AE2EB96A
:1058D00040F2E7223AA141A0FDF77CF9D6E9002089
:1058E000B168904700BF039800285DDB059C6069A4
:1058F00008B9012000E0002010B9201D00F0DDFBF8
:1059000002A800F0C9F8054603980A284AD2DFE841
:1059100000F00905072C2E4506082D2F00BF00BFFB
:1059200000BF00BF0498A269811803462A4620469A
:10593000FFF7EAFEC0B12046616A8847E0690128A6
:1059400012D1002000900498A16942180023194642
:10595000204601F0EFFF07462FB940F2213218A18F
:105960001EA0FDF737F900BF1DE000BF1BE000BF20
:105970000498A061A06908B1012000E0002028B9C6
:105980004FF44E720EA115A0FDF724F9A06941193C
:105990002B462A462046FFF7B7FE04E0204600F0DB
:1059A0004FFC00E000BF00BF00231A4603A90F48C8
:1059B000006801F0C5F9002885D107B0F0BD0000EE
:1059C0002E2E5C4672656552544F535C7372635C55
:1059D00074696D6572732E63000000004572726F0A
:1059E000723A25732C25640D0A000000FC05002086
:1059F000F8B505460C4601F08DF8684600F04CF805
:105A00000646009820BB44B9B54206D801F05CFEBA
:105A100031462846FFF712FF1CE03CB10E480068F3
:105A2000006808B9012000E000200446A91B2246B6
:105A30000A48006800F096FD01F046FE50B94FF0AC
:105A4000805007490860BFF34F8FBFF36F8F01E0AD
:105A500001F03AFEF8BD0000F8050020FC0500202A
:105A600004ED00E00A490968096809B9012100E06C
:105A7000002121B14FF0FF31064A116006E00449D0
:105A80000968C968C868034A416811607047000026
:105A9000BC050020E805002070B5044601F090FC2C
:105AA000054607480068854204D200F00BF8012043
:105AB000206001E00020206001480560284670BD9C
:105AC000040600202DE9F8432DE021480068C06855
:105AD00005681F480068C068C468201D00F0EDFA22
